:100000000C94C6000C94EE000C94EE000C94EE00E0
:100010000C94EE000C94EE000C9421090C94EE006C
:100020000C94EE000C94EE000C94EE000C94EE0098
:100030000C94EE000C94EE000C94EE000C94EE0088
:100040000C94D7080C94EE000C94EE000C94EE0087
:100050000C94EE000C94EE000C94EE000C94EE0068
:100060000C9434100C94EE00250048323D002E0014
:1000700054323D00250048313D002E0054313D00F2
:1000800052756E2020202020002D3E002020003CB4
:100090002D002020002020003C2D002500736574D9
:1000A000483D002E00736574543D00436F6E6669D1
:1000B0006720200045564500444159002D2D006E13
:1000C0006F4D4953540020204D49535400300030A7
:1000D0000020202000434F4F4C0048454154004D24
:1000E0006F64653A003A00436F6E6E656374696FC2
:1000F0006E3A20636C6F736500486F73743A2072B8
:100100006D636C61726B652E636100474554202FEF
:1001100020485454502F312E31000000000024009C
:1001200027002A0000000000250028002B004D6F4A
:1001300064653A5365747570202020200048434858
:100140002020000000000700020100000304060058
:10015000000000000000000404040404040404027D
:100160000202020202030303030303010204081054
:100170002040800102040810200102040810200021
:1001800000000023002600290000CA1F11241FBE02
:10019000CFEFD8E0DEBFCDBF13E0A0E0B1E0EEE0EE
:1001A000FDE402C005900D92A43BB107D9F726E00B
:1001B000A4EBB3E001C01D92AC34B207E1F710E04C
:1001C000C6ECD0E004C02197FE010E947F26C53C0A
:1001D000D107C9F70E94861C0C942F210C940000B3
:1001E000CF93DF93EB010E946E218883CE01DF91D4
:1001F000CF910895FF920F931F93CF93DF938C01BC
:10020000EB01F8800E946E21F81621F06F2DC801D5
:100210000E947621CE01DF91CF911F910F91FF9027
:1002200008956F927F928F929F92AF92BF92CF92DA
:10023000DF92EF92FF920F931F93CF93DF93CDB78F
:10024000DEB7D2500FB6F894DEBF0FBECDBFB09070
:10025000CB039091CC0384E6882E912C8B2DB40196
:100260000E9420263B0167EA71E0CE0101960E94C0
:100270008F21C30199279F938F9396EDE92E91E0EB
:10028000F92EFF92EF921F9223E0D22EDF928E0181
:1002900005501E4F1F930F930E949621B801CE0167
:1002A00001960E9484216BED71E0CE0101960E94BF
:1002B000842134E6C32EC69CB01811241F92BF922D
:1002C000FF92EF921F92DF921F930F930E9496214D
:1002D000B801CE0101960E9484216DED71E0CE013E
:1002E00001960E948421B090C9039091CA038B2D7E
:1002F000B4010E9420263B016FED71E0CE01019612
:100300000E948421C30199279F938F93FF92EF92BC
:100310001F92DF921F930F930E949621B801CE0186
:1003200001960E9484216BED71E0CE0101960E943E
:100330008421C69CB01811241F92BF92FF92EF92A5
:100340001F92DF921F930F930E9496210FB6F8948D
:10035000DEBF0FBECDBFB801CE0101960E94842141
:100360006DED71E0CE0101960E9484216EE072E095
:10037000CE0101960E9484218091C8031F928F9321
:10038000FF92EF921F92DF921F930F930E9496218C
:10039000B801CE0101960E9484216DED71E0CE017D
:1003A00001960E9484216CE372E0CE0101960E94C6
:1003B00084218091C7031F928F93FF92EF921F9227
:1003C000DF921F930F930E949621B801CE010196F0
:1003D0000E9484216DED71E0CE0101960E9484217E
:1003E0006AE672E0CE0101960E9484218091C603E4
:1003F0001F928F934CE9A42E42E0B42EBF92AF928D
:100400001F92DF921F930F930E949621B801CE0195
:1004100001960E9484216DED71E0CE0101960E944B
:1004200084216FE972E0CE0101960E9484218091BF
:10043000C5031F928F93BF92AF921F92DF921F93BB
:100440000F930E9496210FB6F894DEBF0FBECDBF6A
:10045000B801CE0101960E9484216DED71E0CE01BC
:1004600001960E9484216DEC72E0CE0101960E94FB
:1004700084218091C4031F928F938DEF92E09F930C
:100480008F931F9285E08F931F930F930E94962165
:10049000B801CE0101960E9484216DED71E0CE017C
:1004A00001960E94842162E073E0CE0101960E94D1
:1004B00084218091C3031F928F93BF92AF921F92AA
:1004C000DF921F930F930E949621B801CE010196EF
:1004D0000E9484216DED71E0CE0101960E9484217D
:1004E000B0902101909122018B2DB4010E94202611
:1004F0004B0161E373E0CE0101960E948421C401A7
:1005000099279F938F93FF92EF921F92DF921F93F1
:100510000F930E949621B801CE0101960E9484217A
:100520006BED71E0CE0101960E948421C89CB01849
:1005300011241F92BF92FF92EF921F92DF921F939E
:100540000F930E9496210FB6F894DEBF0FBECDBF69
:10055000B801CE0101960E9484216DED71E0CE01BB
:1005600001960E9484216FE573E0CE0101960E94FE
:100570008421809120011F928F93FF92EF921F920E
:10058000DF921F930F930E949621B801CE0101962E
:100590000E9484216DED71E0CE0101960E948421BC
:1005A0008BE791E0CB50DE4F99838883C55FD140C4
:1005B00080910D0690910E06A0910F06B091100645
:1005C000C950DE4F88839983AA83BB83C75FD1401C
:1005D00049E95FE1BE016B507E4F81EA95E00E94E0
:1005E000D81ABE016F5F7F4F81EA95E00E94BD1768
:1005F00081EA95E00E9477160FB6F894DEBF0FBE31
:10060000CDBFDE5F0FB6F894DEBF0FBECDBFDF916A
:10061000CF911F910F91FF90EF90DF90CF90BF90FF
:10062000AF909F908F907F906F9008954F925F92C0
:100630006F927F928F929F92AF92BF92CF92DF92F2
:10064000EF92FF92CF93DF93CDB7DEB72D970FB622
:10065000F894DEBF0FBECDBF8091BF039091C00361
:10066000A091C103B091C20389839A83AB83BC83F9
:100670008091BB039091BC03A091BD03B091BE03D8
:100680008D839E83AF83B88782EE94E00E94B61973
:10069000882339F082EE94E00E94040A4B015C0149
:1006A00006C0812C912C90ECA92E9FE7B92E82EEEA
:1006B00094E00E94BB092B013C018FEC94E00E9466
:1006C000B619882339F08FEC94E00E94040A6B017C
:1006D0007C0106C0C12CD12C80ECE82E8FE7F82ECF
:1006E0008FEC94E00E94BB0969877A878B879C878F
:1006F00020E030E048EC52E4C501B4010E9422231E
:100700000E94EF224B015C017093CC036093CB03FA
:10071000C301B2010E94EF226D876093C80320E0FD
:1007200030E048EC52E4C701B6010E9422230E9447
:10073000EF222B013C017093CA036093C9036985C2
:100740007A858B859C850E94EF2269876093C70319
:10075000B40180E090E00E9438226B017C01B2017C
:1007600080E090E00E9438229B01AC01C701B601F5
:100770000E94C72120E030E040E05FE30E94222396
:100780000E94EF224B015C01AD856A2F70E080E092
:1007900090E00E9438226B017C01B9856B2F70E0DC
:1007A00080E090E00E9438229B01AC01C701B601B5
:1007B0000E94C72120E030E040E05FE30E94222356
:1007C0000E94EF222B013C01B40180E090E00E94E6
:1007D00038226B017C01609121017091220180E03F
:1007E00090E00E9438229B01AC01C701B6010E9433
:1007F000C6216B017C016093BF037093C00380939B
:10080000C1039093C20323E333E343E75FE36D81C6
:100810007E818F8198850E942223A70196010E94E4
:10082000C7214B015C016093BB037093BC038093B1
:10083000BD039093BE0329813A814B815C81C7013E
:10084000B6010E94C62120E030E040EC50E40E9456
:100850002223A70196010E94C7216B017C0120E0A1
:1008600030E040E85EE3C501B4010E9422239B0111
:10087000AC01C701B6010E94C72120E030E040E092
:100880005FE30E9422236B017C0120E030E0A9019C
:100890000E94EA2218166CF41092C60320E030E0A1
:1008A00048EC52E4C701B6010E94332287FF1BC007
:1008B0000DC081E08093C60320E030E048EC52ECAC
:1008C000C701B6010E94EA2218166CF420E030E05D
:1008D000A901C701B6010E94EA2218164CF0C7010F
:1008E000B601905807C060E070E088EC92E402C066
:1008F000C701B6010E94EF22F62E6093C4038091D7
:10090000200190E09C01255031094216530620F445
:1009100081E08093C50305C08415950510F41092FD
:10092000C5038091C603882311F061E001C060E037
:1009300086E00E945C182FEFF29EC00111248C39D2
:10094000A3E69A075CF464E670E00E943426072E62
:10095000000C880B990B0E943A2204C060E070E002
:100960008FE793E40E94EF22F62E7983C62ED72ECE
:1009700061E083E00E948B18C114D10411F460E09F
:1009800005C0BFEFCB16D10429F461E083E00E94DB
:100990005C1848C0E6E4F1E0E491E33009F148F482
:1009A000E130C9F0E230C1F584B5806284BDF8BCA5
:1009B00039C0E63009F1E73039F1E43069F580916A
:1009C00080008062809380008F2D998190938B00AE
:1009D00080938A0027C084B5806884BDF7BC22C09C
:1009E000809180008068809380008F2D9981909302
:1009F00089008093880016C08091B0008068809341
:100A0000B000F092B3000EC08091B000806280937D
:100A1000B000F092B40006C020E8C216D1040CF079
:100A2000B4CFADCF8091C503882311F061E001C040
:100A300060E089E00E945C186AEF70E080E090E07E
:100A40000E94C7188091C303882311F061E001C0A0
:100A500060E085E00E945C186AEF70E080E090E062
:100A60002D960FB6F894DEBF0FBECDBFDF91CF91AC
:100A7000FF90EF90DF90CF90BF90AF909F908F90BE
:100A80007F906F905F904F900C94C718CF92DF9239
:100A9000EF92FF920F931F93CF93DF9300D000D07C
:100AA0001F92CDB7DEB740E550E06DE873E08CEB08
:100AB00095E00E94A016892B09F47BC08BE091E0A1
:100AC0000E945A0B89EF90E00E945A0B87EE90E04B
:100AD0000E945A0B0E94480BE0E0F0E001900020D9
:100AE000E9F7CF0101977C0100E010E0C12CD12C87
:100AF0000E94F50A181619060CF057C0F601E756C1
:100B0000FC4F2081022E000C330B8217930711F04B
:100B1000C12CD12CF601E756FC4F2081022E000C8F
:100B2000330B8217930739F4EFEFCE1ADE0AF8E0A1
:100B3000CF16D104A0F4E114F10419F400E010E0A0
:100B4000D7CFF8012081022E000C330B82179307B8
:100B5000A9F70F5F1F4F0E151F0550F226C065E065
:100B600070E0CE0101960E94290B0597F1F40E94D6
:100B7000960A61E070E0CE0101960E94290B63E0C5
:100B800070E0CE0101960E94290B0E94960A0E94F5
:100B9000960A7093BA036093B9030E94960A709301
:100BA000B8036093B7030E94960A81E08093B6036E
:100BB0000AC01092B6031092BA031092B9031092B1
:100BC000B8031092B70364E670E080E090E00E9402
:100BD000C7188CEB95E00E9498118CEB95E00E9471
:100BE0003F158091B9039091BA038730910514F0B5
:100BF000079701C041969093BA038093B9038091FF
:100C0000B9039091BA0306970D9720F481E0809381
:100C1000B50302C01092B5038091B503882341F05B
:100C20008091A004882321F081E08093C30302C057
:100C30001092C3030F900F900F900F900F90DF91C1
:100C4000CF911F910F91FF90EF90DF90CF9008957B
:100C5000EF92FF921F93CF93DF9380E090E00E948A
:100C60006E218093210181E090E00E946E218093AB
:100C7000220160E271E082E090E00E94F00060EA10
:100C800074E083E090E00E94F0009091A1048091D4
:100C9000B40398130E948B1960E080E00E94211930
:100CA0008091B9039091BA030A9754F462EA73E011
:100CB0008FEF95E00E94BD1760E081E00E9421194E
:100CC0008091B9039091BA030E94571960E082E0C5
:100CD0000E94211965EE70E08FEF95E00E949A174F
:100CE00060E083E00E9421198091B7039091B803DE
:100CF0000A9754F462EA73E08FEF95E00E94BD1703
:100D000060E084E00E9421198091B7039091B803BC
:100D10000E94571961E080E00E9421196FED70E098
:100D20008FEF95E00E949A178091C60360E08823B8
:100D300031F086E00E9421196AED70E005C086E07E
:100D40000E94211965ED70E08FEF95E00E949A17DF
:100D500060E08AE00E94211961ED70E08FEF95E07C
:100D60000E949A1760E08AE00E9421198091C403D2
:100D7000843650F46FEC70E08FEF95E00E949A1784
:100D800060E08BE00E9421198091C4038A3050F406
:100D90006DEC70E08FEF95E00E949A1760E08CE0B8
:100DA0000E9421196091C4038FEF95E00E945019B1
:100DB0008091C50361E0882331F08EE00E94211903
:100DC00066EC70E005C08EE00E9421196FEB70E0C8
:100DD0008FEF95E00E949A178091B60360E0882318
:100DE00091F082E10E94211960E08FEF95E00E946E
:100DF000551760E083E10E94211961E08FEF95E0D3
:100E00000E94551709C082E10E9421196CEB70E025
:100E10008FEF95E00E949A178091B50360E08823D8
:100E200031F08EE00E94211968EB70E005C08EE081
:100E30000E94211964EB70E08FEF95E00E949A17F1
:100E40008091A1048150833008F077C061E085E093
:100E50000E9421196BEA70E08FEF95E00E949A17CB
:100E60002091210190912201822F64E670E00E947E
:100E70002026D62FC22F84E6689FC019112462E075
:100E800080E00E94211965EA70E08FEF95E00E94F2
:100E90009A1762E085E00E9421196D2F8FEF95E08F
:100EA0000E94501962E087E00E94211963EA70E015
:100EB0008FEF95E00E949A1762E088E00E94211966
:100EC0006C2F8FEF95E00E94501962E08AE00E943B
:100ED000211962E08FEF95E00E94551763E080E0F2
:100EE0000E9421196DE970E08FEF95E00E949A173A
:100EF00063E085E00E942119609120018FEF95E069
:100F00000E94501963E087E00E9421196BE970E0AC
:100F10008FEF95E00E949A1763E08DE00E942119FF
:100F20008091A004882319F064EA73E002C06CEA9F
:100F300073E08FEF95E00E94BD178091A10481308E
:100F4000B9F0C0F1823029F1833009F0F5C062E0D8
:100F50008CE00E9421196CE870E08FEF95E00E9410
:100F60009A1763E08AE00E94211969E870E0E0C006
:100F700062E08CE00E94211968E970E08FEF95E053
:100F80000E949A1763E08AE00E94211965E970E0E7
:100F9000CFC062E08CE00E94211962E970E08FEF1F
:100FA00095E00E949A1763E08AE00E9421196FE899
:100FB00070E0BEC061E085E00E94211960E870E049
:100FC0008FEF95E00E949A172091CB039091CC036C
:100FD00084E6E82EF12C822FB7010E942026D62F1E
:100FE0001CE9C22F169FC00D112462E080E00E9410
:100FF00021196CE770E08FEF95E00E949A1762E08C
:1010000083E00E9421196D2F8FEF95E00E94501907
:1010100062E085E00E9421196AE770E08FEF95E0B9
:101020000E949A1762E086E00E9421196C2F8FEFD0
:1010300095E00E94501962E088E00E94211962E068
:101040008FEF95E00E94551763E080E00E94211920
:1010500066E770E08FEF95E00E949A1763E083E007
:101060000E9421196091C8038FEF95E00E945019EA
:1010700063E085E00E94211964E770E08FEF95E05E
:101080000E949A172091C9039091CA03822FB70139
:101090000E942026D62FC22F169FC00D112462E079
:1010A0008BE00E94211960E770E08FEF95E00E94CD
:1010B0009A1762E08EE00E9421196D2F8FEF95E064
:1010C0000E94501962E080E10E9421196EE670E0F2
:1010D0008FEF95E00E949A1762E081E10E9421194A
:1010E0006C2F8FEF95E00E94501962E083E10E941F
:1010F000211962E08FEF95E00E94551763E08BE0C5
:101100000E9421196AE670E08FEF95E00E949A171D
:1011100063E08EE00E9421196091C7038FEF95E094
:101120000E94501963E080E10E94211968E670E096
:101130008FEF95E00E949A178091A1048093B403E9
:10114000DF91CF911F91FF90EF9008953FB7F894F2
:101150008091D2039091D303A091D403B091D50391
:1011600026B5A89B05C02F3F19F00196A11DB11D02
:101170003FBFBA2FA92F982F8827820F911DA11D3D
:10118000B11DBC01CD0142E0660F771F881F991F7A
:101190004A95D1F708952FB7F8946091CE037091D6
:1011A000CF038091D0039091D1032FBF08951F9258
:1011B0000F920FB60F9211242F933F938F939F930B
:1011C000AF93BF938091CE039091CF03A091D003B2
:1011D000B091D1033091CD0323E0230F2D3720F4BC
:1011E0000196A11DB11D05C026E8230F0296A11D81
:1011F000B11D2093CD038093CE039093CF03A09392
:10120000D003B093D1038091D2039091D303A091E6
:10121000D403B091D5030196A11DB11D8093D203D3
:101220009093D303A093D403B093D503BF91AF9110
:101230009F918F913F912F910F900FBE0F901F9014
:1012400018951F920F920FB60F9211242F933F9370
:101250004F935F936F937F938F939F93AF93BF93BE
:10126000EF93FF93E0E0F0E00995FF91EF91BF91DC
:10127000AF919F918F917F916F915F914F913F912E
:101280002F910F900FBE0F901F901895CF93C09184
:10129000210180E090E00E946E21C81729F06C2F98
:1012A00080E090E00E947621C091220181E090E0F0
:1012B0000E946E21C81729F06C2F81E090E00E94F7
:1012C000762160E271E082E090E00E94FA0060EA3C
:1012D00074E083E090E0CF910C94FA0085ED809368
:1012E000BC008091BC0084FDFCCF1092F9030895EE
:1012F000089581E090E03091F7032091F6033217D2
:1013000010F480E090E091958195910908950F93F4
:101310001F930E94CB086093C4057093C50580930A
:10132000C6059093C7058CEB95E00E94491297FF84
:101330001FC00E94CB080091C4051091C5052091E3
:10134000C6053091C705DC01CB01801B910BA20BB8
:10135000B30B0091C0051091C1052091C2053091D9
:10136000C30580179107A207B307E8F28FEF9FEF3D
:101370001F910F910895CF92DF92EF92FF92CF933A
:10138000DF93EC010E94B619882399F18E818B308E
:1013900080F18D3098F08551823058F568817981DF
:1013A00076276727762780E090E00E9438222DEC90
:1013B0003CEC4CEC5DE30E9422231FC0698170E08D
:1013C00080E090E00E943A222DEC3CEC4CEC5DE396
:1013D0000E9422236B017C01688170E080E090E034
:1013E0000E943A229B01AC01C701B6010E94C721AD
:1013F00004C060E070E080EC9FE7DF91CF91FF9048
:10140000EF90DF90CF900895CF92DF92EF92FF920E
:101410001F93CF93DF93EC018E818C3009F442C08F
:1014200018F48B30C1F05CC08551823008F058C090
:101430001A81612F6F7770E0762F66278B81682B7A
:1014400080E090E00E9438222DEC3CEC4CEC5DE317
:101450000E94222341C06A8170E080E090E00E94F7
:1014600038226B017C01CB81C7FF0AC09B01AC0114
:1014700060E070E080E89FEB0E94C6216B017C0178
:101480006C2F6F7070E080E090E00E943A222DECAB
:101490003CEC4CEC5DE30E942223A70196010E94E4
:1014A000C72122C01A81612F70E080E090E00E9485
:1014B00038226B017C016B816F7070E080E090E0FE
:1014C0000E943A222DEC3CEC4CEC5DE30E9422237E
:1014D000A70196010E94C72117FF06C0905804C0BB
:1014E00060E070E080EC9FE7DF91CF911F91FF906B
:1014F000EF90DF90CF900895FC018485843021F037
:1015000063E070E00C94231B80E00895CF93C82F14
:10151000462F61E070E00E94281561E070E08C2F9A
:101520000E94231B8111F9CFCF910895CF92DF92B2
:10153000EF92FF92CF930E948709FC0197FD0BC0A9
:101540008D32910561F0C0970A9748F08CEB95E0D9
:101550000E94D512F0CF60E070E0CB0140C0C12CFA
:10156000D12C7601C0E0E130F10501F1ED32F10559
:10157000E1F0CF01C0970A97C8F4AAE0B0E0A70154
:1015800096010E9432216F01FF0FEE08FF08DC0177
:10159000CB018C0D9D1DAE1DBF1D6C017D0120E397
:1015A000C21AD108E108F10801C0C1E08CEB95E056
:1015B0000E94D5120E948709FC01C0970A9798F2F1
:1015C000E130F10581F2CC2341F066277727CB018A
:1015D0006C197D098E099F0902C0C701B601CF9120
:1015E000FF90EF90DF90CF9008950F931F930E948C
:1015F000CB086093C4057093C5058093C60590938E
:10160000C7058CEB95E00E94D51297FF1FC00E9482
:10161000CB080091C4051091C5052091C6053091F5
:10162000C705DC01CB01801B910BA20BB30B009112
:10163000C0051091C1052091C2053091C3058017E6
:101640009107A207B307E8F28FEF9FEF1F910F9169
:101650000895EF92FF920F931F93CF93DF938B0127
:101660007C01C0E0D0E0C017D10751F00E94F50A1C
:1016700097FD05C0F70181937F012196F4CF8E017C
:10168000C801DF91CF911F910F91FF90EF900895C6
:10169000CF93DF936DE08CEB95E00E945517EC0142
:1016A0006AE08CEB95E00E9455178C0F9D1FDF912F
:1016B000CF910895CF93DF93BC018CEB95E00E940E
:1016C0009A17EC010E94480B8C0F9D1FDF91CF9160
:1016D00008950F931F93CF93DF93C82FD62F8A01BE
:1016E0000E9432154D2F60E070E08C2F0E9428156B
:1016F0000115110551F400917204109173040F5FEC
:101700001F4F1093730400937204412F64E070E044
:101710008C2F0E942815402F65E070E08C2F0E94CE
:10172000281561E070E08C2F0E94860A81E0DF912D
:10173000CF911F910F9108959F92AF92BF92CF9238
:10174000DF92EF92FF920F931F93CF93DF93982E28
:101750008B015A01690164E270E00E94231BE82EAC
:10176000F12C65E270E0892D0E94231BFE2CEE24F3
:10177000E82AE801CE0DDF1D9E013770E92CF12C1F
:10178000C701880F991FAC01415E5B4F7A01FA01D6
:1017900080819181820F931FA9014C0D5D1D413005
:1017A000584090F000E018E0021B130BA801B501AF
:1017B0000E94DE14A601401B510BB501600F711F82
:1017C000F7018081918102C0A601B5010E94DE145B
:1017D000CC0DDD1D4D2F64E270E0892D0E9428158F
:1017E0004C2F65E270E0892DDF91CF911F910F9111
:1017F000FF90EF90DF90CF90BF90AF909F900C94B0
:101800002815FF920F931F93CF93DF93F82E00E0DC
:1018100010E08F2D0E949014EC01892B21F08F2D68
:101820000E9490148C01C017D10799F7CE01DF9167
:10183000CF911F910F91FF9008958F929F92AF9239
:10184000BF92CF92DF92EF92FF920F931F93CF93AD
:10185000DF93D82E4B015A01C22E68E270E00E943D
:10186000231BC82FD0E069E270E08D2D0E94231B5E
:10187000DC2FCC278E01082B98013770ED2CF12C32
:10188000C701880F991FAC01495D5B4F7A01FA01CE
:1018900080819181820F931FA501420F531F413018
:1018A000584090F0C0E0D8E0C21BD30BAE01B401A9
:1018B0000E94AE14A5014C1B5D0BB4016C0F7D1F83
:1018C000F7018081918102C0A501B4010E94AE148C
:1018D000C1101BC0E501C00FD11F4D2F68E270E0A1
:1018E0008D2D0E9428154C2F69E270E08D2DDF911F
:1018F000CF911F910F91FF90EF90DF90CF90BF900D
:10190000AF909F908F900C942815DF91CF911F91ED
:101910000F91FF90EF90DF90CF90BF90AF909F908E
:101920008F900895FF920F931F93CF93DF93F82E1C
:1019300000E010E08F2D0E947814EC01892B21F03B
:101940008F2D0E9478148C01C017D10799F7CE0112
:10195000DF91CF911F910F91FF9008954F925F9269
:101960006F927F928F929F92AF92BF92CF92DF92AF
:10197000EF92FF920F931F93CF93DF93CDB7DEB714
:1019800063970FB6F894DEBF0FBECDBF7C015B013D
:101990003A01FB01DB018D918111FDCF20E030E0A8
:1019A00080E090E05AE041914423F9F084309105C1
:1019B0004CF54E3269F42F3F310509F01CF5D30187
:1019C000A80FB91F12962C93019620E030E0EBCFC0
:1019D000529FB001539F700D1124242F440F330BDD
:1019E00020533109260F371FDECF2F3F310509F075
:1019F0004CF48430910534F4F301E80FF91F22838D
:101A000081E021C0F7014281538164817581809119
:101A1000B0049091B104A091B204B091B3044817FE
:101A200059076A077B0709F427C10E94CB08870181
:101A3000085F1F4F6F7077277C5FC8010E94411BB2
:101A4000813019F080E090E0F8C18BE791E09A8353
:101A50008983F70182819381A481B5818B839C83E3
:101A6000AD83BE8345E350E0BE016F5F7F4FC80189
:101A70000E94D81A892B19F4C12CD12CF8C00E94CD
:101A8000CB08F7017783668342E050E0B7016A5FD5
:101A90007F4FC8010E945B1381E090E09A838983A5
:101AA00042E050E0BE016F5F7F4FC8010E945B13B0
:101AB00080E091E09A83898342E050E0BE016F5F4D
:101AC0007F4FC8010E945B131A82198242E050E0E6
:101AD000BE016F5F7F4FC8010E945B1342E050E080
:101AE000BE016F5F7F4FC8010E945B1342E050E070
:101AF000BE016F5F7F4FC8010E945B134501F50176
:101B00008081882301F164015601F60181912F0142
:101B1000882321F08E3211F06201F6CFC818D9085F
:101B20001C141D0474F4CD8641E050E0BE01635FD7
:101B30007F4FC8010E945B13A601B401C8010E9437
:101B40005B134201DCCF1D8641E050E0BE01635FC4
:101B50007F4FC8010E945B13C12CDD24D394DA822D
:101B6000C98242E050E0BE016F5F7F4FC8010E9412
:101B70005B13DA82C98242E050E0BE016F5F7F4FA3
:101B8000C8010E945B13C8010E947716892B09F4D3
:101B900073CFE3E0AE2EB12C230122E0420E511CA4
:101BA0000E94CB083B014C01C8010E948D131816FE
:101BB0001906A4F00E94CB08DC01CB018619970915
:101BC000A809B90989389341A105B105D0F462E3A8
:101BD00070E080E090E00E94C718E6CFF7014281F4
:101BE000538164817581818D928DA38DB48D481749
:101BF00059076A077B0749F4858D968DC59729F4A7
:101C000009C0CC24CA94DC2C29C09EEFC92EDD2447
:101C1000DA9424C0F70181A192A10C970CF408C1B9
:101C20004CE050E0BE016F5F7F4FC8010E94EF1291
:101C30008B819C819827892798279A8B898BF7011C
:101C40004681578129813A8142175307C1F0C80163
:101C50000E94C5117CEFC72EDD24DA9481E0A81A1A
:101C6000B10829F0FFEFCF16DF0609F499CFC801BC
:101C70000E94151BC601E1C08EEF9FEFDEC097FFEB
:101C8000E6CF8F709270892B41F0C8010E94C51178
:101C90006BEFC62EDD24DA94E1CF6F807884762452
:101CA000672476246114710419F0C12CD12C25C04D
:101CB000C8010E94C5115AEFC52EDD24DA94CECF9B
:101CC00041E050E0BE01635F7F4FC8010E94EF1208
:101CD0008D8581111BC08D858111F2CFC8010E94B5
:101CE0000E13C8010E940E13C8010E940E13C801F2
:101CF0000E940E13FFEFCF1ADF0A8D819E81982775
:101D000089279827C816D906D8F20AC08D859FEF73
:101D1000980F9D878823F9F2C8010E940E13F6CF11
:101D2000812C912C41E050E0BE016D5E7F4FC801D7
:101D30000E94EF128B89982F907C61F4882389F0A0
:101D40008B899FEF980F9B8B882341F0C8010E94DD
:101D50000E13F6CFC8010E940E131B8A8B898111C6
:101D6000E1CF42E050E0BE01615F7F4FC8010E94B9
:101D7000EF1242E050E0BE01635F7F4FC8010E9456
:101D8000EF12C8010E940E13C8010E940E13C80171
:101D90000E940E13C8010E940E1342E050E0BE01E3
:101DA0006F5E7F4FC8010E94EF128F859889811561
:101DB000914049F4CD84DE84DC24CD24DC2481E010
:101DC000C816D10419F0C12CD12C14C089899A8964
:101DD0008115944041F0C8010E94C51147EFC42EFF
:101DE000DD24DA943BCF44E050E0B201C8010E9408
:101DF000EF1234CF89899A89982789279827C8169E
:101E0000D90638F4C8010E940E13FFEFCF1ADF0A7B
:101E1000F1CF2FEF821A920A6814790409F082CF69
:101E2000C8010E94C51136EFC32EDD24DA9416CF07
:101E30008DEFC82EDD24DA9411CF63960FB6F89497
:101E4000DEBF0FBECDBFDF91CF911F910F91FF90ED
:101E5000EF90DF90CF90BF90AF909F908F907F904A
:101E60006F905F904F900895CF93DF9320919F05DF
:101E70003091A0052A30310564F4EDE1F5E0C0E0D1
:101E8000D0E021913191232B39F02196CA30D10530
:101E9000C1F78FEF9FEF3AC041155105D1F3DC0137
:101EA000CB01FE01EE0FFF1FEE0FFF1FEF5CFA4F9D
:101EB00080839183A283B383FE01EE0FFF1FE35E55
:101EC000FA4F51834083FE01EE0FFF1FE75AFA4F8E
:101ED00011821082FE01EF57FA4F81E080830E9449
:101EE000CB08FE01EE0FFF1FEE0FFF1FEB50FB4F65
:101EF000608371838283938380919F059091A00575
:101F000001969093A00580939F05CE01DF91CF911C
:101F10000895CF93DF93EC0162E08D810E948B18CE
:101F20000E94CB08DC01CB01805D9740A109B1097B
:101F300089879A87AB87BC8787E38A8BDF91CF91AC
:101F40000895CF92DF92EF92FF920F931F93CF935A
:101F5000DF936C017B018A01E9016CE271E080E0B2
:101F600090E00E94C71861E08AE00E945C1861E07E
:101F70008AE00E948B188CB580618CBD8CB5806422
:101F80008CBD61E08DE00E948B1861E08BE00E94C7
:101F90008B18229A60E880E090E00E940D1565E5BC
:101FA0008BE190E00E940D1565E58AE190E00E94CA
:101FB0000D15EFE1F4E080E090E49183808380E010
:101FC00090E69187808780E098E49383828380E025
:101FD00098E69387828780E090E59583848380E00C
:101FE00090E79587848780E098E59783868380E0F3
:101FF00098E79787868746E050E060E071E089E0E7
:1020000090E00E94DE14B6016E5F7F4F44E050E026
:102010008FE090E00E94DE14B8016E5F7F4F44E0D5
:1020200050E081E090E00E94DE14BE016E5F7F4FC1
:1020300044E050E085E090E00E94DE14F7018281E8
:102040009381A481B5818093B6049093B704A09343
:10205000B804B093B904DF91CF911F910F91FF9015
:10206000EF90DF90CF9008951F920F920FB60F92CE
:1020700011242F933F934F935F936F937F938F938D
:102080009F93AF93BF93EF93FF938091B900887FA5
:10209000803609F49CC068F5883209F45BC090F47E
:1020A000803109F454C038F4882309F4EFC0883033
:1020B00009F44DC0EFC0883109F44CC0803209F4F6
:1020C0005DC0E8C0803409F468C048F4803309F486
:1020D00055C0883309F0DEC08093F803D1C0803545
:1020E00009F44FC0883509F45DC0883409F0D2C0C6
:1020F000CFC0883909F4C0C0A8F4883709F467C094
:1021000038F4883609F463C0803709F460C0C2C06F
:10211000883809F4B1C0803909F45FC0803809F00B
:10212000B9C05BC0803B09F481C038F4803A09F43F
:1021300066C0883A09F47AC0ADC0803C09F4A0C0FA
:10214000883C09F49DC0883B09F483C0A3C08091FA
:102150001E0410C090911D0480911C04981770F506
:10216000E0911D0481E08E0F80931D04F0E0E450A7
:10217000FC4F80818093BB0085EC7FC08093F80387
:1021800087C0E0911D0481E08E0F80931D04809133
:10219000BB00F0E0E450FC4F808390911D048091DF
:1021A0001C0467C0E0911D0481E08E0F80931D0424
:1021B0008091BB00F0E0E450FC4F80838091FB03F2
:1021C000811166C081E08093FA0384EA5AC083E0FB
:1021D0008093F90310927104CFCF80917104803203
:1021E00008F04AC0E091710481E08E0F8093710481
:1021F0008091BB00F0E0EF5AFB4F8083BDCF809110
:102200007104803230F4E0917104F0E0EF5AFB4F3A
:1022100010820E946E096091710470E081E594E083
:10222000E0E0F0E00995109271042AC084E0809308
:10223000F9031092500410924F04E0E0F0E0099589
:1022400080914F04811105C081E080934F0410926A
:102250002F04E091500481E08E0F80935004F0E051
:10226000E15DFB4F80818093BB0090915004809191
:102270004F04981708F480CF85E88093BC000AC00B
:1022800085EC8093BC001092F90304C01092F8030F
:102290000E946E09FF91EF91BF91AF919F918F9135
:1022A0007F916F915F914F913F912F910F900FBE52
:1022B0000F901F901895613298F42091F903243003
:1022C00089F460934F04282FAFE2B4E0FC018E2F15
:1022D000821B861718F481918D93F9CF80E00895C1
:1022E00081E0089582E008959091F7038091F603CC
:1022F000981750F4E92FF0E0EA52FC4F208130E0CB
:102300009F5F9093F70302C02FEF3FEFC90108953D
:102310008091F60390E02091F703821B91090895C4
:1023200021E0FC018485843009F420E0822F0895A7
:10233000CF93DF93EC01E881F9810480F581E02DF2
:10234000CE010995892B41F0E881F9810680F7815A
:10235000E02DCE010995EFCFDF91CF910895CF9376
:10236000DF931F92CDB7DEB76983DC01ED91FC915D
:102370000280F381E02D41E050E0BE016F5F7F4FAE
:1023800009950F90DF91CF910895CF93DF93EC01E2
:10239000898D9A8D892B41F0E881F9810680F7813A
:1023A000E02DCE010995F4CFDF91CF910895CF9321
:1023B000DF931F92CDB7DEB76983DC01ED91FC910D
:1023C0000280F381E02D41E050E0BE016F5F7F4F5E
:1023D00009950F90DF91CF910895CF92DF92EF9200
:1023E000FF920F931F93CF93DF937C01CB018A0160
:1023F00020919F04222389F0EB016B01C40ED51EAE
:10240000CC15DD0569F06991D701ED91FC91019042
:10241000F081E02DC7010995F3CF642F0E945B1175
:10242000C801DF91CF911F910F91FF90EF90DF9046
:10243000CF900895CF93DF931F92CDB7DEB7698316
:1024400020919F042223D1F020917D04203240F07E
:1024500021E030E0FC013383228380E090E015C06E
:1024600080917C04E82FF0E0E158FB4F9981908344
:102470008F5F80937C0480937D0405C061E0CE0172
:1024800001960E945B1181E090E00F90DF91CF9167
:1024900008950F931F93CF93DF931F92CDB7DEB7AD
:1024A0008C01DC01ED91FC910480F581E02D099512
:1024B000892B69F021E041E050E0BE016F5F7F4F62
:1024C000F80184850E941D0C898190E002C08FEF85
:1024D0009FEF0F90DF91CF911F910F910895CF93B0
:1024E000DF931F92CDB7DEB7FC01218D328D232BF8
:1024F00061F021E041E050E0BE016F5F7F4F8485D5
:102500000E941D0C898190E002C08FEF9FEF0F9019
:10251000DF91CF910895FC018485843011F00C94F3
:10252000920C80E090E00895CF92DF92EF92FF92BC
:102530001F93CF93DF93182F6B017A010E94920CA7
:10254000EC01009799F463E070E0812F0E94231B57
:102550008431F1F08823E1F0C1E0D0E08C3111F456
:10256000C0E0D0E0D195C195D10912C0E816F906B6
:102570000CF4E7011C161D065CF420E0AE01B60168
:10258000812F0E941D0C60E470E0812F0E94860A5A
:10259000CE01DF91CF911F91FF90EF90DF90CF9010
:1025A0000895FC0184850C949412CF93DF931F92BD
:1025B000CDB7DEB741E050E0BE016F5F7F4FFC0159
:1025C00084850E949412181619061CF4898190E0E3
:1025D00002C08FEF9FEF0F90DF91CF910895CF93BF
:1025E000DF93FC01218D328D2115310519F48FEF18
:1025F0009FEF11C0EC014217530708F0A9018C8529
:102600000E9494121816190694F7298D3A8D281BEA
:10261000390B3A8F298FDF91CF9108950F931F9334
:10262000CF93DF931F92CDB7DEB7FC01218D328DA2
:10263000232B61F08C0141E050E0BE016F5F7F4FC2
:1026400084850E949412181619061CF08FEF9FEFD4
:1026500008C0F801818D928D0197928F818F8981B9
:1026600090E00F90DF91CF911F910F910895CF933C
:10267000DF93FC0124852430D1F0EC010E947C0A18
:10268000843181F0882371F0883161F08C3161F4FC
:10269000E881F9810480F581E02DCE01099521E0E2
:1026A000892B19F420E001C021E0822F01C080E0D5
:1026B000DF91CF910895AF92BF92CF92DF92FF92B8
:1026C0000F931F93CF93DF938C015B01EA01FC0111
:1026D000C788D08CF4848F2D0E94010C8C179D0725
:1026E00020F48F2D0E94010CEC019E01A501B60182
:1026F0008F2D0E949C0BF8018789908D8C0F9D1F58
:10270000908F878BCE01DF91CF911F910F91FF901A
:10271000DF90CF90BF90AF9008950F931F93CF930A
:10272000DF93CDB7DEB728970FB6F894DEBF0FBEA4
:10273000CDBF8C01DC01ED91FC910284F385E02D8D
:102740000995F80184850E94920C892B51F148E08B
:1027500050E0BE016F5F7F4FD8011C968C910E94A4
:10276000941218161906FCF4D801519684E0FE0163
:10277000319601900D928A95E1F78D8190E0982F26
:1027800088272E81820F911DF801968B858B8F8172
:1027900090E0982F88272885820F911D928F818F36
:1027A00002C080E090E028960FB6F894DEBF0FBE1E
:1027B000CDBFDF91CF911F910F910895CF93FC0171
:1027C000C48121E020939F04C0937E0410927C0476
:1027D00010927D048385682B82EA94E00E941A128D
:1027E00090917D04913208F041C08091F9038111EC
:1027F000FCCF82E08093F90381E08093FB038FEFAD
:102800008093F80310921D0490931C04AFE7B4E08A
:10281000ECEFF3E080E0981721F02D9121938F5F8A
:10282000FACF10921E0480911E04CC0FC82BC093C7
:102830001E048091FA03813041F41092FA038091D2
:102840001E048093BB0085EC01C085EE8093BC0024
:102850008091F9038230E1F38091F8038F3F31F0EA
:102860008091F803803211F08091F80310927C047B
:1028700010927D0410929F04CF9108950F931F939F
:10288000CF938C01C62F0E94DE136C2F6460C801A9
:102890000E94DE136C2F6B7FC8010E94DE1382EC56
:1028A00090E00197F1F7CF911F910F9108950F9349
:1028B0001F93CF93DF938C01C62FD42F607F642B9F
:1028C0000E943E1480E1C89FB00111246D2BC80105
:1028D000DF91CF911F910F910C943E1441E00E9423
:1028E000571481E090E008952A9A08952A9808954F
:1028F0001F93CF93DF93182F66E270E00E94231B93
:10290000C82FD0E067E270E0812F0E94231BDC2FEC
:10291000CC279E01282BC901DF91CF911F910895EB
:102920001F93CF93DF93182F60E270E00E94231B68
:10293000C82FD0E061E270E0812F0E94231BDC2FC2
:10294000CC279E01282BC901DF91CF911F910895BB
:102950008EBD0DB407FEFDCF8EB50895CF92DF92E8
:10296000EF92FF920F931F93CF93DF93EC017A01C5
:102970008B016C01C40ED51ECC15DD05A9F00E949B
:1029800076148FE00E94A8148D2F0E94A8148C2F1B
:102990000E94A814219680E00E94A814F801819357
:1029A0008F010E947414E8CFC701DF91CF911F916E
:1029B0000F91FF90EF90DF90CF900895CF92DF922C
:1029C000EF92FF920F931F93CF93DF93EC017A0165
:1029D0008B016C01C40ED51ECC15DD05A1F00E9443
:1029E000761480EF0E94A8148D2F0E94A8148C2FBB
:1029F0000E94A8142196F80181918F010E94A814C9
:102A00000E947414E9CFC701DF91CF911F910F91FC
:102A1000FF90EF90DF90CF9008951F93CF93DF93B7
:102A2000D82F192FC62F0E94761480EF0E94A81469
:102A3000812F0E94A8148D2F0E94A8148C2F0E9411
:102A4000A8140E94741481E0DF91CF911F91089522
:102A50009B0190E00496982F8827642F820F931F84
:102A60000C940D15CF93C82F60E170E00E94860A88
:102A70004FEF62E070E08C2FCF910C942815CF922D
:102A8000DF92EF92FF92CF93DF93EC018C8584303D
:102A900059F168E070E00E94860A0E94CB086B0141
:102AA0007C01CE010E947C0A8823A1F00E94CB0801
:102AB000DC01CB018C199D09AE09BF09883E93400A
:102AC000A105B10538F461E070E080E090E00E947B
:102AD000C718E7CFCE010E947C0A882319F08C85A5
:102AE0000E94321584E08C87DF91CF91FF90EF90A8
:102AF000DF90CF9008958F929F92AF92BF92CF9226
:102B0000DF92EF92FF920F931F93CF936C015B01C3
:102B10007A01FC01C485C43041F481E090E0F60103
:102B20009383828380E090E041C08A014130584025
:102B300010F000E018E08C2F0E94010C4C0163E0C3
:102B400070E08C2F0E94231B873111F08C3121F40F
:102B50008016910680F302C000E010E09801A50104
:102B600060E070E08C2F0E949C0B60E270E08C2F84
:102B70000E94860A62E070E08C2F0E94231B84FD75
:102B80000BC063E070E08C2F0E94231B8111F2CFF9
:102B90008C2F0E943215C1CF40E162E070E08C2F93
:102BA0000E942815012B09F4B8CFC701CF911F91BE
:102BB0000F91FF90EF90DF90CF90BF90AF909F90DC
:102BC0008F900895DF92EF92FF920F931F93CF9310
:102BD000DF93FC012485243009F07CC07A01EB01ED
:102BE0008C01D12C63E070E08D2D0E94231B81119C
:102BF00003C0F801D48607C08B7F8831D1F3D3940A
:102C0000F4E0DF12EFCFF8018485843009F462C06C
:102C100020910601309107012F5F3F4F11F420E012
:102C200034E0309307012093060140910601509152
:102C3000070161E00E94690B8A818F3F51F48B810B
:102C40008F3F91F48C818F3F79F48D818F3F61F4B8
:102C50003EC0811109C08B81811106C08C81811118
:102C600003C08D81882399F1E114F10481F1F80109
:102C7000D484BE016E5F7F4F8D2D90E0982F882702
:102C800044E050E0845F9B4F0E94DE144F2D60E1D2
:102C900070E08D2D0E9428154E2D61E170E08D2D84
:102CA0000E94281564E070E08D2D0E94860AC801FC
:102CB0000E947C0A873189F061E070E080E090E05A
:102CC0000E94C718C8010E947C0A8111F0CF84E0DD
:102CD000F801848780E090E002C081E090E0DF911D
:102CE000CF911F910F91FF90EF90DF900895CF93B8
:102CF000FC01C48560E270E08C2F0E94860A62E0CD
:102D000070E08C2F0E94231B84FD10C062E070E0F5
:102D10008C2F0E94231B83FFF2CF48E162E070E01A
:102D20008C2F0E94281580E090E008C040E162E00E
:102D300070E08C2F0E94281581E090E0CF910895DB
:102D4000CF92DF92EF92FF920F931F93CF93DF9377
:102D5000CDB7DEB7AF970FB6F894DEBF0FBECDBFCD
:102D60008C016B017A01CE0101960E942818CE01D8
:102D700009960E940E1CCE018A960E942818809106
:102D8000B6049091B704A091B804B091B9048EA391
:102D90009FA3A8A7B9A78B839C83AD83BE83188606
:102DA0001F82AE01465D5F4FB601CE0101960E94C3
:102DB000AE0C81309105C1F4D801ED91FC910484F1
:102DC000F585E02D8BE791E09DA38CA38CA59DA5B7
:102DD000AEA5BFA58EA39FA3A8A7B9A7A701BE01B3
:102DE0006C5D7F4FC8010995AF960FB6F894DEBFB2
:102DF0000FBECDBFDF91CF911F910F91FF90EF904C
:102E0000DF90CF900895CF92DF92EF92FF920F93D1
:102E10001F93CF93DF936C01EB017B01E40EF51E52
:102E200000E010E0CE15DF0561F06991D601ED916B
:102E3000FC910190F081E02DC6010995080F191F42
:102E4000F1CFC801DF91CF911F910F91FF90EF90CB
:102E5000DF90CF9008950895833081F028F4813079
:102E600099F08230A1F008958630A9F08730B9F04A
:102E70008430D1F4809180008F7D03C080918000E8
:102E80008F7780938000089584B58F7702C084B5D2
:102E90008F7D84BD08958091B0008F7703C08091AD
:102EA000B0008F7D8093B0000895DC01ED91FC911E
:102EB0000190F081E02D09948F929F92AF92BF9282
:102EC000CF92DF92EF92FF920F931F93CF93DF93F6
:102ED0007C018B014C0182E0880E911C5701E5E0DA
:102EE000AE0EB11CC0E0D0E0F40161914F01C80109
:102EF0000E9450196C016EE2C8010E9455178C0D9A
:102F00009D1DC80FD91F8A149B0471F7F7016581B5
:102F1000C8010E9450198C0F9D1FDF91CF911F9106
:102F20000F91FF90EF90DF90CF90BF90AF909F9068
:102F30008F900895EF92FF920F931F93CF93DF939B
:102F40007C01FB0100E010E06491EF012196662313
:102F500061F0D701ED91FC910190F081E02DC70166
:102F60000995080F191FFE01EFCFC801DF91CF911E
:102F70001F910F91FF90EF9008956115710579F001
:102F8000FB0101900020E9F73197AF01461B570B79
:102F9000DC01ED91FC910280F381E02D099480E049
:102FA00090E008958F929F92AF92BF92CF92DF925E
:102FB000EF92FF920F931F93CF93DF93CDB7DEB7BE
:102FC000A1970FB6F894DEBF0FBECDBF6C01142FD2
:102FD000E52FCB01022F19A2223008F40AE07E016E
:102FE00021E2E20EF11C802E912CA12CB12C612F3C
:102FF0007E2FA50194010E943D21029F10191124EA
:1030000081E0E81AF1081A3014F4105D01C0195C6F
:10301000F7011083122FE32FCA01232B242B252B1A
:1030200031F7B701C6010E94BD17A1960FB6F894FB
:10303000DEBF0FBECDBFDF91CF911F910F91FF90EB
:10304000EF90DF90CF90BF90AF909F908F900895BA
:10305000FC018BE791E08193919384E0DF011D9265
:103060008A95E9F70895CF93DF93282F30E0F9018F
:10307000ED5BFE4F8491F901E559FE4FD491F901C2
:10308000E95AFE4FC491CC2391F081110E942C1774
:10309000EC2FF0E0EE0FFF1FE158FE4FA591B49129
:1030A000EC91ED2381E090E021F480E002C080E02B
:1030B00090E0DF91CF9108951F93CF93DF93282F56
:1030C00030E0F901ED5BFE4F8491F901E559FE4FC7
:1030D000D491F901E95AFE4FC491CC23C1F0162FC7
:1030E00081110E942C17EC2FF0E0EE0FFF1FEC5D1A
:1030F000FE4FA591B4919FB7F894111104C08C9123
:10310000D095D82302C0EC91DE2BDC939FBFDF91DA
:10311000CF911F910895CF93DF9390E0FC01E55983
:10312000FE4F2491FC01E95AFE4F8491882361F1FE
:1031300090E0880F991FFC01E65EFE4FC591D49187
:10314000FC01EC5DFE4FA591B491611109C09FB7E0
:10315000F8948881209582238883EC912E230BC0DC
:10316000623061F49FB7F8948881322F30958323C1
:103170008883EC912E2B2C939FBF06C08FB7F894B9
:10318000E8812E2B28838FBFDF91CF910895CF92B6
:10319000DF92EF92FF92CF93DF936B017C010E944D
:1031A000A608EB01C114D104E104F10479F00E94F6
:1031B000A6086C1B7D0B683E7340A0F381E0C81A23
:1031C000D108E108F108C851DC4FECCFDF91CF9175
:1031D000FF90EF90DF90CF900895CF93DF93EC01B5
:1031E000862F688319821A8242E350E060E070E023
:1031F0004E875F87688B798B60E00E948B1889818E
:10320000882321F061E088810E945C1888810E94F7
:1032100033188B839A81992321F091E0811190E0FA
:103220009B830E94CB086E837F83888799872B813D
:103230002C831D826A877B878C879D87DF91CF9146
:103240000895CF93DF93CDB7DEB728970FB6F894E4
:10325000DEBF0FBECDBF98E0E3E2F1E0DE011196E4
:1032600001900D929A95E1F790910806961710F447
:103270006FEF690FFE013196E60FF11DE60FF11DAC
:103280006081680F606840E08FEF95E028960FB688
:10329000F894DEBF0FBECDBFDF91CF910C945714D1
:1032A000462F50E060E070E02AE00C94D217CF92F5
:1032B000DF92EF92FF92CF93DF936C01990FEE08AC
:1032C000FF08F7FE1BC06DE28FEF95E00E945517D7
:1032D000EC0144275527BA014C195D096E097F0995
:1032E0002AE08FEF95E00E94D2178C0F9D1FDF918F
:1032F000CF91FF90EF90DF90CF9008952AE0B70133
:10330000A6018FEF95E0DF91CF91FF90EF90DF90D6
:10331000CF900C94D21740E061E08FEF95E00E94CF
:1033200057148AE39FE10197F1F708950F931F93D4
:10333000CF93DF938B01877098E0899FB0011124B0
:10334000606440E08FEF95E00E945714E801085F49
:103350001F4F69918FEF95E00E946E14C017D1073F
:10336000C1F7DF91CF911F910F9108958F929F9296
:10337000AF92BF92CF92DF92EF92FF920F931F9383
:10338000CF93DF93CDB7DEB7C054D1400FB6F894DA
:10339000DEBF0FBECDBF8C010E94CB08F801C184F7
:1033A000D284E384F4849B01AC012C193D094E09BD
:1033B0005F0969017A0130EDC31637E0D306E104F5
:1033C000F10410F48189C1C0F80161877287838795
:1033D00094871482138212821182108262E08581A6
:1033E0000E948B1861E070E080E090E00E94C718B6
:1033F00061E0F80185810E948B1860E0F801858109
:103400000E945C18F80186818551823028F48AE296
:1034100091E10197F1F706C064E170E080E090E08F
:103420000E94C71862E0F80185810E948B18F8019C
:10343000828990E0019739F0880F991F880F991FB2
:1034400002970197F1F7F89460E0C8010E946F1BA2
:103450006F3F7F4F8F4F9F4F21F4F801118A78946F
:1034600045C061E0C8010E946F1B6F3F7F4F8F4FC7
:103470009F4F99F39E012F5F3F4F79015E013FEB14
:10348000A31A3EEFB30A670160E0C8010E946F1BF8
:10349000F601608371838283938361E0C8010E9497
:1034A0006F1BF6016483758386839783F8E0CF0EE4
:1034B000D11CCA14DB0441F7789420E030E0F70116
:1034C00080809180A280B38044815581668177811C
:1034D000FFEF8F169F06AF06BF0631F04F3F8FEF0D
:1034E00058076807780721F4F801118A80E02DC099
:1034F000F90183E0F595E7958A95E1F7E00FF11F73
:103500008081880F84169506A606B70608F48160A8
:1035100080832F5F3F4FF8E0EF0EF11C283231051A
:1035200071F6F801248130E04081818190E0840FC0
:10353000911D4281840F911D4381840F911D992714
:103540002817390789F681E0818BC05CDE4F0FB602
:10355000F894DEBF0FBECDBFDF91CF911F910F91C9
:10356000FF90EF90DF90CF90BF90AF909F908F90A3
:103570000895FC01818D928D0895FC0185899689BD
:1035800008952BE731E0FC0131832083FB01418961
:10359000528963897489FC014283538364837583F0
:1035A0000895DC01ED91FC91008CF18DE02D0994E2
:1035B0001F93CF93DF93FB01DC0158961C921E9260
:1035C00057972281211109C02381211106C024812E
:1035D000211103C02581222311F141155105F9F074
:1035E000EA01BF01FC0114856E5F7F4F812F90E0DF
:1035F000982F882744E050E0845F9B4F0E94DE14A0
:103600004D2F60E170E0812F0E9428154C2F61E161
:1036100070E0812F0E94281581E090E002C080E0D8
:1036200090E0DF91CF911F910895CF93DF93FC013C
:103630008485843029F0EF010E94321584E08C8764
:10364000DF91CF910895CF93DF9390E00496982F68
:103650008827EC01C60FD71F0E9476148FE00E94C6
:10366000A8148D2F0E94A8148C2F0E94A81480E00B
:103670000E94A814C82F0E9474148C2FDF91CF9140
:103680000895EF92FF921F93CF93DF93FC0124855F
:10369000243011F080E01DC07B01EC0110E063E0FC
:1036A00070E0812F0E94231B811102C01C8705C07E
:1036B0008831E1F31F5F143091F78C85843051F32A
:1036C000FE86ED861A8E198EA70162E00E94690BB4
:1036D00081E0DF91CF911F91FF90EF900895CF92FD
:1036E000DF92EF92FF921F93CF93DF93EC011F8144
:1036F000662311F0912F01C090E0288530E0220F61
:10370000331F21583E4FA0E0B0E0F901459154919C
:10371000FA0180818123AD0160E070E098130FC051
:103720001196CD84DE84EF84F8884C155D056E0516
:103730007F0558F33FEF2FEF8FEF9FEF03C03A2F36
:10374000252FCB01632F722FDF91CF911F91FF9017
:10375000EF90DF90CF900895FC018381882321F0C2
:1037600081E09581911101C080E00895CF92DF92B0
:10377000EF92FF920F931F93CF93DF93EC010E9480
:10378000CB086B017C0160934806709349068093D7
:103790004A0690934B0688810E943318809347060F
:1037A0009A81992329F091E0811190E09093470646
:1037B0008A859B85AC85BD8597018601081B190B01
:1037C0002A0B3B0B4E855F85688979899B8104179D
:1037D00015072607370738F4CE82DF82E886F98698
:1037E0001D82892F12C09C83809147068B83CE82D5
:1037F000DF82E886F986981739F0CA86DB86EC8680
:10380000FD8691E09D8301C01D82DF91CF911F91C4
:103810000F91FF90EF90DF90CF900895FC011382FD
:10382000128288EE93E0A0E0B0E084839583A683C3
:10383000B78387E891E09183808384E08487CF0118
:103840000F960C942818CF92DF92EF92FF920F936D
:103850001F93CF93DF93CDB7DEB7AF970FB6F89432
:10386000DEBF0FBECDBF8C016B017A01CE01019688
:103870000E942818CE0109960E940E1CCE018A963D
:103880000E9428188091B6049091B704A091B804C2
:10389000B091B9048EA39FA3A8A7B9A78B839C83DB
:1038A000AD83BE8318861F82AE01465D5F4FB601B1
:1038B000CE0101960E94AE0C81309105C1F4D80171
:1038C000ED91FC910088F189E02D8BE791E09DA3BB
:1038D0008CA38CA59DA5AEA5BFA58EA39FA3A8A7CD
:1038E000B9A7A701BE016C5D7F4FC8010995AF96CE
:1038F0000FB6F894DEBF0FBECDBFDF91CF911F9101
:103900000F91FF90EF90DF90CF900895CF93DF93CA
:10391000CDB7DEB76E970FB6F894DEBF0FBECDBF42
:10392000789484B5826084BD84B5816084BD85B59A
:10393000826085BD85B5816085BD80916E008160A6
:1039400080936E001092810080918100826080934C
:10395000810080918100816080938100809180004E
:103960008160809380008091B10084608093B10079
:103970008091B00081608093B00080917A00846073
:1039800080937A0080917A00826080937A0080919F
:103990007A00816080937A0080917A0080688093B9
:1039A0007A001092C1001092F7031092F603109261
:1039B0007C0410927D041092F90381E08093FB0354
:1039C0001092FA0361E082E10E945C1861E083E1F9
:1039D0000E945C188091B9008E7F8093B90080911D
:1039E000B9008D7F8093B90088E48093B80085E4A6
:1039F0008093BC001092040680910806823018F073
:103A000098E09093040690910906992339F081304B
:103A100029F48091040684608093040662E370E0D8
:103A200080E090E00E94C71860910A068FEF95E051
:103A30000E94DE1368EE73E080E090E00E94C718F9
:103A400060E38FEF95E00E943E140AE416E4C8019B
:103A50000197F1F760E38FEF95E00E943E14C801F3
:103A60000197F1F760E38FEF95E00E943E1482E545
:103A700092E00197F1F760E28FEF95E00E943E142B
:103A800060910406606240E08FEF95E00E94571459
:103A900084E08093050640E06CE08FEF95E00E94A3
:103AA00057140E948B1982E08093060640E066E07E
:103AB0008FEF95E00E94571440E062E08FEF95E0B1
:103AC0000E9457148AE39FE10197F1F768E171E0E2
:103AD00080E00E94961960E171E081E00E949619F1
:103AE00068E071E082E00E94961918E010930A06DF
:103AF00060E08FEF95E00E94DE136AEF70E080E0F7
:103B000090E00E94C71810920A0660E08FEF95E0DF
:103B10000E94DE136AEF70E080E090E00E94C71818
:103B200010930A0660E08FEF95E00E94DE136AEFC3
:103B300070E080E090E00E94C71860E080E00E94A2
:103B400021196DE371E08FEF95E00E949A1761E013
:103B500080E00E9421196EE271E08FEF95E00E94F3
:103B60009A1760E082E00E948B1860E084E00E9477
:103B70008B1860E088E00E948B1861E085E00E946D
:103B80008B1861E089E00E948B1861E087E00E9459
:103B90008B1861E083E00E948B1861E086E00E9450
:103BA0008B1860E085E00E945C1860E089E00E946C
:103BB0005C1860E086E00E945C1861E083E00E948F
:103BC0008B1860E083E00E945C186AEF70E080E090
:103BD00090E00E94C7188BE791E09A838983409117
:103BE00013065091140660911506709116064B83CA
:103BF0005C836D837E8398878F83409119065091F3
:103C00001A0660911B0670911C0649875A876B87BC
:103C10007C879E878D8740911F065091200660917A
:103C20002106709122064F87588B698B7A8B9C8B6B
:103C30008B8B8091250690912606A0912706B09146
:103C400028068D8B9E8BAF8BB88F9E012F5F3F4FC9
:103C5000AE01495F5F4FBE01635F7F4FCE01439668
:103C60000E94A10F88EB9BE0A0E0B0E08093C0052C
:103C70009093C105A093C205B093C30564EF71E0B2
:103C800080E090E00E94C71869E97FE181EA95E051
:103C90000E94411B82EE94E00E94890F8FEC94E019
:103CA0000E94890F8CEB94E00E94890F41E151E062
:103CB00060EE73E984E090E00E94340F46E153E047
:103CC00060E375E780E090E00E94340F48E256E040
:103CD00060ED77E080E090E00E94340F46E455E02C
:103CE00060E375E780E090E00E94340FF894A895B7
:103CF0008091600088618093600089E68093600015
:103D00007894EE24E394F12C8DEE95E00E94B61B9E
:103D10008BED95E00E94B61B89EC95E00E94B61BE6
:103D20008DEE95E00E94AC1B882371F08091A10478
:103D30008F5F843018F48093A10402C01092A10414
:103D40000E948B190E9428068091A104813021F5E0
:103D50008BED95E00E94AC1B882369F080912101D6
:103D6000909122010A9690932201809321010E9452
:103D700046090E94280689EC95E00E94AC1B882326
:103D800009F440C080912101909122010A979093FB
:103D900022018093210132C08230D9F48BED95E06D
:103DA0000E94AC1B882349F0809120018F5F809393
:103DB00020010E9446090E94280689EC95E00E9495
:103DC000AC1B8823F9F08091200181508093200161
:103DD00015C08330B9F48BED95E00E94AC1B8111C6
:103DE00006C089EC95E00E94AC1B882389F0809185
:103DF000A004882309F4CAC01092A0040E944609B6
:103E00000E9428068091A104843010F01092A10431
:103E10000E94CB084B015C01E9E5F5E095EF292E06
:103E200094E0392E21E8C22E25E0D22E0DE615E0D1
:103E300096013E8E2D8E13AA12AACF01CC97DC01DB
:103E40008D919C91892B09F440C0AD8DBE8D4D9014
:103E50005D906D907C901397DC964D915D916D9186
:103E60007C91DF97D501C40184199509A609B7098A
:103E700084179507A607B70740F1440D551D661D29
:103E8000771DAD8DBE8D4D935D936D937C93139790
:103E9000D9018C918823C9F0408151814115510588
:103EA00019F4F3AAE2AA11C08489958984179507A9
:103EB00064F4F3AAE2AA0196958B848B8417950784
:103EC00024F082E090E093AB82AB3296AD8DBE8D54
:103ED0001496BE8FAD8F2F5F3F4FB5E0ED36FB07D9
:103EE00009F0A9CF85EFA82E84E0B82EF801868DC1
:103EF000978D8130910519F0029741F02DC0D501C1
:103F00009896ED91FC919997099526C0D5019896C0
:103F1000ED91FC919997099580919F059091A0054D
:103F20000097D1F0F50120A531A5232BA9F011A60A
:103F300010A6D6011C92F801178E168ED101DC96C0
:103F40001D921D921D921C92DF9711821082019783
:103F50009093A00580939F05B2E0AB0EB11CEFEFEC
:103F6000CE1ADE0AF4E02F0E311C0E5F1F4F89E0DF
:103F7000A81685E0B80609F0B9CFA895A0E0B0E092
:103F8000AB2B09F4C1CE0E940000BECE81E080932D
:103F9000A00434CFCF92DF92EF92FF920F931F9342
:103FA000CF93DF93CBE7D1E0D0932A06C0932906C5
:103FB00010922B0610922C0610922D0610922E06AF
:103FC0001092A5041092A40488EEC82E83E0D82E87
:103FD000E12CF12CC092A604D092A704E092A80490
:103FE000F092A9048FE291E09093A3048093A2043D
:103FF000D093AF04C093AE041092B0041092B104F9
:104000001092B2041092B304D0933006C0932F06DE
:104010001092310610923206109233061092340636
:1040200084EB94E00E942818D0933606C09335069E
:1040300010923706109238061092390610923A06FE
:10404000D0933C06C0933B0610923D0610923E066C
:1040500010923F0610924006D0934206C09341064C
:10406000109243061092440610924506109246069E
:10407000D0932406C093230620EC2093250698EACB
:104080009093260681E0809327063FED3093280623
:10409000D0931E06C0931D0620931F069093200602
:1040A000809321063EEF30932206D0931806C093EA
:1040B00017062093190690931A0680931B063093D7
:1040C0001C06D0931206C09311068FEF809313063F
:1040D000809314068093150610921606D0930C0652
:1040E000C0930B0683E280930D0695EC90930E0629
:1040F00080930F0680E680931006109202061092BD
:1041000001068BE691E0909300068093FF0587E21D
:104110008093030684E180930706C4E0C0930806F9
:104120001092090688E080930A0662E08DEE95E021
:104130000E94ED1864E08BED95E00E94ED1868E0B8
:1041400089EC95E00E94ED181092BF051092BE0513
:10415000C092C005D092C105E092C205F092C3059D
:104160008FE491E09093BD058093BC05C093C80592
:1041700081EA95E00E940E1C0E94CB08C1E8D5E0C0
:10418000EDE1F5E005EF14E041E355E019921192FD
:104190001192D8016D937D938D939D938D019F0115
:1041A000225B3F4FD9011D921C924E175F0771F79A
:1041B0001092A00510929F058EE08093E70426E1FF
:1041C0002093E804E9E7F1E0E491E093E904E5E60F
:1041D000F1E0E491E093EA0480E89EE3A0E0B0E03F
:1041E0008093EF049093F004A093F104B093F20451
:1041F0003FE03093D4042093D504EAE7F1E0E49162
:10420000E093D604E6E6F1E0E491E093D7048093EE
:10421000DC049093DD04A093DE04B093DF0430E16E
:104220003093C1042093C204EBE7F1E0E491E09302
:10423000C304E7E6F1E0E491E093C4048093C90489
:104240009093CA04A093CB04B093CC04DF91CF9198
:104250001F910F91FF90EF90DF90CF900895F89409
:104260000C9485260E945F21A59F900DB49F900D10
:10427000A49F800D911D11240895A1E21A2EAA1B5E
:10428000BB1BFD010DC0AA1FBB1FEE1FFF1FA21706
:10429000B307E407F50720F0A21BB30BE40BF50B03
:1042A000661F771F881F991F1A9469F7609570958C
:1042B000809590959B01AC01BD01CF010895A29F0F
:1042C000B001B39FC001A39F700D811D1124911DEA
:1042D000B29F700D811D1124911D0895F999FECF93
:1042E00092BD81BDF89A992780B50895262FF99936
:1042F000FECF1FBA92BD81BD20BD0FB6F894FA9AC9
:10430000F99A0FBE01960895FB01DC010D90002083
:10431000E9F7119701900D920020E1F70895FB0154
:10432000DC0101900D920020E1F70895AEE0B0E0CD
:10433000ECE9F1E20C9456260D891E898F89988D3F
:1043400026E02C831A83098397FF02C080E090E85F
:1043500001979E838D83AE01455E5F4F698D7A8D97
:10436000CE0101960E948F234D815E8157FD0AC0C8
:104370002F813885421753070CF49A01F801E20F98
:10438000F31F10822E96E4E00C9472265058BB273F
:10439000AA270E94DE210C94B0220E94A22238F0AB
:1043A0000E94A92220F039F49F3F19F426F40C94BE
:1043B0009F220EF4E095E7FB0C949922E92F0E94CE
:1043C000C12258F3BA17620773078407950720F0D4
:1043D00079F4A6F50C94E3220EF4E0950B2EBA2F97
:1043E000A02D0B01B90190010C01CA01A0011124FB
:1043F000FF27591B99F0593F50F4503E68F11A16A7
:10440000F040A22F232F342F4427585FF3CF469537
:1044100037952795A795F0405395C9F77EF41F1659
:10442000BA0B620B730B840BBAF09150A1F0FF0F23
:10443000BB1F661F771F881FC2F70EC0BA0F621F0F
:10444000731F841F48F4879577956795B795F795FF
:104450009E3F08F0B0CF9395880F08F09927EE0F94
:104460009795879508950E94752208F481E0089534
:10447000E89409C097FB3EF49095809570956195FE
:104480007F4F8F4F9F4F9923A9F0F92F96E9BB27B4
:104490009395F695879577956795B795F111F8CF30
:1044A000FAF4BB0F11F460FF1BC06F5F7F4F8F4F9B
:1044B0009F4F16C0882311F096E911C0772321F091
:1044C0009EE8872F762F05C0662371F096E8862F29
:1044D00070E060E02AF09A95660F771F881FDAF780
:1044E000880F9695879597F90895990F0008550FAD
:1044F000AA0BE0E8FEEF16161706E807F907C0F06A
:1045000012161306E407F50798F0621B730B840B71
:10451000950B39F40A2661F0232B242B252B21F44B
:1045200008950A2609F4A140A6958FEF811D811DEB
:10453000089597F99F6780E870E060E008959FEF25
:1045400080EC089500240A9416161706180609062A
:10455000089500240A9412161306140605060895F9
:10456000092E0394000C11F4882352F0BB0F40F481
:10457000BF2B11F460FF04C06F5F7F4F8F4F9F4FC1
:10458000089557FD9058440F551F59F05F3F71F043
:104590004795880F97FB991F61F09F3F79F08795AA
:1045A0000895121613061406551FF2CF4695F1DF33
:1045B00008C0161617061806991FF1CF86957105C3
:1045C000610508940895E894BB2766277727CB01F7
:1045D00097F908950E94752208F48FEF08950E94BC
:1045E000C92258F19E5760F19851A0F0E9F0983037
:1045F00020F5092E9927660F771F881F991F0A94A7
:10460000D1F712C0062E672F782F8827985F11F4F4
:10461000000C07C0993FB4F38695779567959395FD
:10462000D9F7611D711D811D3EF49095809570959F
:1046300061957F4F8F4F9F4F089568940C94E422AB
:104640000C94E3220E9435230C94B0220E94A222F3
:1046500038F00E94A92220F0952311F00C949922A1
:104660000C949F2211240C94E4220E94C12270F326
:10467000959FC1F3950F50E0551F629FF001729F07
:10468000BB27F00DB11D639FAA27F00DB11DAA1F16
:10469000649F6627B00DA11D661F829F2227B00D63
:1046A000A11D621F739FB00DA11D621F839FA00DEE
:1046B000611D221F749F3327A00D611D231F849F3E
:1046C000600D211D822F762F6A2F11249F57504095
:1046D0009AF0F1F088234AF0EE0FFF1FBB1F661F10
:1046E000771F881F91505040A9F79E3F510580F0D9
:1046F0000C9499220C94E4225F3FE4F3983ED4F3A7
:10470000869577956795B795F795E7959F5FC1F77C
:10471000FE2B880F911D9695879597F90895ABE02C
:10472000B0E0E5E9F3E20C9448266C017B018A01D4
:10473000FC0117821682838181FFCCC1CE010196D4
:104740003C01F6019381F70193FD859193FF8191DF
:104750007F01882309F4BAC1853239F493FD85912C
:1047600093FF81917F01853229F4B60190E00E9488
:104770008625E7CF912C212C312CFFE1F315D8F0C1
:104780008B3279F038F4803279F08332A1F4232D22
:1047900020611DC08D3261F0803369F4232D2160CA
:1047A00016C0832D8260382EE32DE4603E2E2AC091
:1047B000F32DF8601DC037FC2DC020ED280F2A30E6
:1047C00040F08E32B9F436FC81C1232D2064322EA4
:1047D00019C036FE06C08AE0989E200D1124922E44
:1047E00011C0EAE02E9E200D1124222EF32DF0623E
:1047F0003F2E08C08C3621F4832D8068382E02C0ED
:10480000883641F4F70193FD859193FF81917F01F3
:104810008111B3CF982F9F7D9554933028F40C5F6E
:104820001F4F9FE399830DC0833631F0833771F0BA
:10483000833509F059C021C0F801808189830E5F5A
:104840001F4F88248394912C530113C02801F2E058
:104850004F0E511CF801A080B18036FE03C0692DB7
:1048600070E002C06FEF7FEFC5010E947B254C0115
:104870008201F32DFF773F2E16C0280122E0420E61
:10488000511CF801A080B18036FE03C0692D70E094
:1048900002C06FEF7FEFC5010E9470254C01F32D20
:1048A000F0683F2E820133FC1BC0822D90E08816F9
:1048B0009906B0F4B60180E290E00E9486252A9421
:1048C000F4CFF50137FC859137FE81915F01B60188
:1048D00090E00E94862521102A9421E0821A9108F6
:1048E0008114910471F7E8C0843611F0893641F5DE
:1048F000F80137FE07C060817181828193810C5F6E
:104900001F4F08C060817181072E000C880B990B26
:104910000E5F1F4FF32DFF763F2E97FF09C0909536
:104920008095709561957F4F8F4F9F4FF0683F2E18
:104930002AE030E0A3010E94C225882E861845C0D7
:10494000853731F4232D2F7EB22E2AE030E025C0AA
:10495000932D997FB92E8F36C1F018F4883579F0F0
:10496000B5C0803719F0883721F0B0C0E92FE06179
:10497000BE2EB4FE0DC0FB2DF460BF2E09C034FE68
:104980000AC0292F2660B22E06C028E030E005C0FC
:1049900020E130E002C020E132E0F801B7FE07C0BC
:1049A00060817181828193810C5F1F4F06C060819D
:1049B000718180E090E00E5F1F4FA3010E94C2252D
:1049C000882E8618FB2DFF773F2E36FE0DC0232D37
:1049D0002E7FA22E891458F434FE0BC032FC09C07D
:1049E000832D8E7EA82E05C0B82CA32C03C0B82C16
:1049F00001C0B92CA4FE0FC0FE01E80DF11D80819D
:104A0000803321F49A2D997EA92E09C0A2FE06C0FA
:104A1000B394B39404C08A2D867809F0B394A3FCB0
:104A200011C0A0FE06C0B21488F4280C922C9B186A
:104A30000EC0B21460F4B60180E290E00E948625B8
:104A4000B394F7CFB21418F42B1802C0982C212C71
:104A5000A4FE10C0B60180E390E00E948625A2FE6D
:104A600017C0A1FC03C088E790E002C088E590E091
:104A7000B6010CC08A2D867859F0A1FE02C08BE2E7
:104A800001C080E2A7FC8DE2B60190E00E9486257D
:104A9000891438F4B60180E390E00E9486259A9448
:104AA000F7CF8A94F301E80DF11D8081B60190E003
:104AB0000E9486258110F5CF222009F442CEB6014E
:104AC00080E290E00E9486252A94F6CFF601868146
:104AD000978102C08FEF9FEF2B96E2E10C94642642
:104AE000FC010590615070400110D8F780959095B9
:104AF0008E0F9F1F0895FC016150704001900110BE
:104B0000D8F7809590958E0F9F1F08950F931F9350
:104B1000CF93DF93FB01238121FD03C08FEF9FEF34
:104B20002CC022FF16C0468157812481358142174F
:104B3000530744F4A081B1819D012F5F3F4F318322
:104B400020838C93268137812F5F3F4F37832683C5
:104B500014C08B01EC01FB010084F185E02D099567
:104B6000892BE1F6D80116968D919C9117970196A5
:104B700017969C938E931697CE01DF91CF911F913C
:104B80000F910895FA01AA27283051F1203181F1BF
:104B9000E8946F936E7F6E5F7F4F8F4F9F4FAF4F45
:104BA000B1E03ED0B4E03CD0670F781F891F9A1F58
:104BB000A11D680F791F8A1F911DA11D6A0F711D0C
:104BC000811D911DA11D20D009F468943F912AE018
:104BD000269F11243019305D3193DEF6CF01089500
:104BE000462F4770405D4193B3E00FD0C9F7F6CF31
:104BF000462F4F70405D4A3318F0495D31FD4052F9
:104C0000419302D0A9F7EACFB4E0A695979587958E
:104C100077956795BA95C9F700976105710508956D
:104C20009B01AC010A2E0694579547953795279519
:104C3000BA95C9F7620F731F841F951FA01D0895B1
:104C4000AA1BBB1B51E107C0AA1FBB1FA617B707B2
:104C500010F0A61BB70B881F991F5A95A9F78095CE
:104C60009095BC01CD01089597FB072E16F4009492
:104C700007D077FD09D00E94202607FC05D03EF41E
:104C8000909581959F4F0895709561957F4F0895F8
:104C90002F923F924F925F926F927F928F929F924C
:104CA000AF92BF92CF92DF92EF92FF920F931F933A
:104CB000CF93DF93CDB7DEB7CA1BDB0B0FB6F894EB
:104CC000DEBF0FBECDBF09942A88398848885F842B
:104CD0006E847D848C849B84AA84B984C884DF809C
:104CE000EE80FD800C811B81AA81B981CE0FD11D80
:104CF0000FB6F894DEBF0FBECDBFED010895EE0FE5
:0E4D0000FF1F0590F491E02D0994F894FFCF69
:104D0E0000ADBEEFFEEE0004081408030404030019
:104D1E0000000E1A0E0000001C171D011D171C00AE
:104D2E004BF6090000400014005400000000001A69
:104D3E0012ED118811741179097809000000002B09
:104D4E001703172B172B172B172B1700000000AF6D
:104D5E00117B158B12D51249129811E215A016D19E
:104D6E00123F1537139011000000006E1403170048
:104D7E000000002B170317000000005C1700000056
:104D8E00002B1700000000D7115B13B91A0E136F1A
:104D9E0012C511411B151BD81A231C77168D13EF44
:104DAE0012D11AC11ABD1A74656D70312C6F776EDF
:104DBE0065723D726F6C6F2C67726F75703D686FA8
:104DCE006D652C6465766963653D6863683220762F
:104DDE00616C75653D0025303264002E000A00744A
:104DEE00656D70322C6F776E65723D726F6C6F2CC5
:104DFE0067726F75703D686F6D652C64657669635B
:104E0E00653D686368322076616C75653D00687536
:104E1E006D312C6F776E65723D726F6C6F2C677291
:104E2E006F75703D686F6D652C6465766963653D61
:104E3E00686368322076616C75653D0068756D3209
:104E4E002C6F776E65723D726F6C6F2C67726F751B
:104E5E00703D686F6D652C6465766963653D68634A
:104E6E0068322076616C75653D0068656174636FAC
:104E7E006F6C2C6F776E65723D726F6C6F2C6772F4
:104E8E006F75703D686F6D652C6465766963653D01
:104E9E00686368322076616C75653D002564006D2F
:104EAE006973742C6F776E65723D726F6C6F2C67C1
:104EBE00726F75703D686F6D652C6465766963659C
:104ECE003D686368322076616C75653D0068706F71
:104EDE007765722C6F776E65723D726F6C6F2C6793
:104EEE00726F75703D686F6D652C6465766963656C
:104EFE003D686368322076616C75653D0025303300
:104F0E0064006C696768742C6F776E65723D726FA2
:104F1E006C6F2C67726F75703D686F6D652C646574
:104F2E00766963653D686368322076616C75653DB0
:104F3E0000736574542C6F776E65723D726F6C6F73
:104F4E002C67726F75703D686F6D652C6465766940
:104F5E0063653D686368322076616C75653D0073EC
:104F6E006574482C6F776E65723D726F6C6F2C672F
:104F7E00726F75703D686F6D652C646576696365DB
:104F8E003D686368322076616C75653D00726D63B5
:104F9E006C61726B652E6361000D0A446174653A33
:104FAE002000300020204672756974006E6F4672C4
:044FBE00756974009D
:00000001FF
