:100000000C941F020C9450020C9450020C94500259
:100010000C9450020C9450020C9450020C94500218
:100020000C9450020C9450020C9450020C94500208
:100030000C94F50A0C9450020C9450020C9450024B
:100040000C9450020C9450020C9450020C945002E8
:100050000C9450020C9450020C9450020C94AB0A75
:100060000C9450020C9450020C9450020C945002C8
:100070000C9450020C9450020C9450020C945002B8
:100080000C9450020C9450020C9450020C945002A8
:100090000C9450020C9450020C9450020C940C12CC
:1000A0000C9450020C9450020C9450020C94500288
:1000B0000C9450020C9450020C9450020C94500278
:1000C0000C9450020C9450020C9450020C94500268
:1000D0000C9450020C9450020C9450020C94500258
:1000E0000C9450023D06420647065306E0065F06A2
:1000F00067066F067B0687069306A406B006E00631
:10010000BC06C806D4061F19221915191919591940
:1001100026192A193019341938193E194219461965
:1001200059194C19501954190C94C21C0C944219A9
:100130000C9457170C94461D0C9487060C948B1343
:100140000C94D4060C9430190C947B060C94500B30
:100150000C941B170C94B1140C94510B0C9446196D
:100160000C94E0060C9493060C9413150C9422192D
:100170000C94CB140C94D61C0C947C180C94FC217D
:100180000C9464130C941F190C9438190C944706A2
:100190000C94C9130C9426190C94FC070C94DD1CC8
:1001A0000C94A4060C942A190C943E190C945F0626
:1001B0000C9450130C9437150C9473020C94611921
:1001C0000C9415190C9425140C944A160C946F0673
:1001D0000C94A1130C9467140C9467060C941919D1
:1001E0000C944B140C9469150C94BE1C0C94741351
:1001F0000C9459190C94B0060C943D060C946C1395
:100200000C94DF180C9453180C94B3130C945419D9
:100210000C944C190C94F6130C94C61C0C94C80640
:100220000C941A1D0C9478040C94BE170C94AD1405
:100230000C94EA140C94281E0C941A070C94420691
:100240000C9407190C9453060C9434190C945019FF
:100250000C94BC06250048323D002E0054323D006F
:10026000250048313D002E0054313D0052756E206E
:1002700020202020002D3E002020003C2D002020AA
:10028000002020003C2D002500736574483D002EA1
:1002900000736574543D00436F6E666967202000EB
:1002A00045564500444159002D2D006E6F4D495370
:1002B000540020204D4953540030003000202020AD
:1002C00000434F4F4C0048454154004D6F64653A20
:1002D000003A00436F6E6E656374696F6E3A206317
:1002E0006C6F736500486F73743A20726D636C6154
:1002F000726B652E636100474554202F204854548B
:10030000502F312E310000002100240027002A0048
:100310002D003000330001010000040107010A0133
:1003200000002200250028002B002E0031003400A0
:1003300002010000050108010B014D6F64653A538D
:10034000657475702020202000484348202000005C
:1003500000090A02080B0C0D070603040100000047
:10036000000000000000000000000000000000008D
:10037000000000000000000000000011100F00004D
:10038000000000000000000000000000000000006D
:10039000000000000005050505070508080808021B
:1003A0000202020A0A08080404040401010101010E
:1003B0000101010303030303030303040707070CFD
:1003C0000C0C0C0C0C0C0C020202020606060606B3
:1003D0000606060B0B0B0B0B0B0B0B010210202060
:1003E0000808102040102040800201020108040289
:1003F00001010204081020408080402010080402FF
:100400000180040201804020100804020108040257
:10041000010102040810204080010204081020405D
:1004200080000020002300260029002C002F00322D
:10043000000001000003010601090100FC21112454
:100440001FBECFEFD1E2DEBFCDBF00E00CBF14E096
:10045000A0E0B2E0E4E7F1E500E00BBF02C00790E6
:100460000D92A43BB107D9F727E0A4EBB4E001C09B
:100470001D92AC34B207E1F712E0CFE1D2E000E028
:1004800006C021970109802FFE010E94B028CE31BD
:10049000D10780E00807A9F70E948B1E0C94612306
:1004A0000C940000CF93DF93EB010E94A02388837C
:1004B000CE01DF91CF910895FF920F931F93CF93B9
:1004C000DF938C01EB01F8800E94A023F81621F045
:1004D0006F2DC8010E94A823CE01DF91CF911F91FB
:1004E0000F91FF9008956F927F928F929F92AF929B
:1004F000BF92CF92DF92EF92FF920F931F93CF9311
:10050000DF93CDB7DEB7D2500FB6F894DEBF0FBE83
:10051000CDBFB090CB049091CC0484E6882E912C72
:100520008B2DB4010E9488283B0167EA72E0CE015E
:1005300001960E94C123C30199279F938F9396ED43
:10054000E92E92E0F92EFF92EF921F9223E0D22E35
:10055000DF928E0105501E4F1F930F930E94C823F8
:10056000B801CE0101960E94B6236BED72E0CE0178
:1005700001960E94B62334E6C32EC69CB0181124FF
:100580001F92BF92FF92EF921F92DF921F930F93E1
:100590000E94C823B801CE0101960E94B6236DEDDA
:1005A00072E0CE0101960E94B623B090C9049091EA
:1005B000CA048B2DB4010E9488283B016FED72E0C4
:1005C000CE0101960E94B623C30199279F938F9372
:1005D000FF92EF921F92DF921F930F930E94C82306
:1005E000B801CE0101960E94B6236BED72E0CE01F8
:1005F00001960E94B623C69CB01811241F92BF9288
:10060000FF92EF921F92DF921F930F930E94C823D5
:100610000FB6F894DEBF0FBECDBFB801CE01019674
:100620000E94B6236DED72E0CE0101960E94B623C2
:100630006EE073E0CE0101960E94B6238091C8045B
:100640001F928F93FF92EF921F92DF921F930F934F
:100650000E94C823B801CE0101960E94B6236DED19
:1006600072E0CE0101960E94B6236CE373E0CE01E6
:1006700001960E94B6238091C7041F928F93FF9228
:10068000EF921F92DF921F930F930E94C823B8012D
:10069000CE0101960E94B6236DED72E0CE01019667
:1006A0000E94B6236AE673E0CE0101960E94B6234B
:1006B0008091C6041F928F934CE9A42E43E0B42E80
:1006C000BF92AF921F92DF921F930F930E94C82395
:1006D000B801CE0101960E94B6236DED72E0CE0105
:1006E00001960E94B6236FE973E0CE0101960E9445
:1006F000B6238091C5041F928F93BF92AF921F9231
:10070000DF921F930F930E94C8230FB6F894DEBFA9
:100710000FBECDBFB801CE0101960E94B6236DED8C
:1007200072E0CE0101960E94B6236DEC73E0CE011B
:1007300001960E94B6238091C4041F928F938DEF7F
:1007400093E09F938F931F9285E08F931F930F9356
:100750000E94C823B801CE0101960E94B6236DED18
:1007600072E0CE0101960E94B62362E074E0CE01F1
:1007700001960E94B6238091C3041F928F93BF926B
:10078000AF921F92DF921F930F930E94C823B8016C
:10079000CE0101960E94B6236DED72E0CE01019666
:1007A0000E94B623B0902102909122028B2DB401B9
:1007B0000E9488284B0161E374E0CE0101960E94FB
:1007C000B623C40199279F938F93FF92EF921F92B4
:1007D000DF921F930F930E94C823B801CE010196A8
:1007E0000E94B6236BED72E0CE0101960E94B62303
:1007F000C89CB01811241F92BF92FF92EF921F92D3
:10080000DF921F930F930E94C8230FB6F894DEBFA8
:100810000FBECDBFB801CE0101960E94B6236DED8B
:1008200072E0CE0101960E94B6236FE574E0CE011E
:1008300001960E94B623809120021F928F93FF920F
:10084000EF921F92DF921F930F930E94C823B8016B
:10085000CE0101960E94B6236DED72E0CE010196A5
:100860000E94B6238BE792E0CB50DE4F99838883BA
:10087000C55FD14080910D0790910E07A0910F07A1
:10088000B0911007C950DE4F88839983AA83BB8338
:10089000C75FD14049E95FE1BE016B507E4F81EAFD
:1008A00096E00E94DD1CBE016F5F7F4F81EA96E0FB
:1008B0000E94C21981EA96E00E9453180FB6F8947C
:1008C000DEBF0FBECDBFDE5F0FB6F894DEBF0FBE3A
:1008D000CDBFDF91CF911F910F91FF90EF90DF90EF
:1008E000CF90BF90AF909F908F907F906F90089522
:1008F0004F925F926F927F928F929F92AF92BF9230
:10090000CF92DF92EF92FF92CF93DF93CDB7DEB716
:100910002D970FB6F894DEBF0FBECDBF8091BF04F8
:100920009091C004A091C104B091C20489839A83BC
:10093000AB83BC838091BB049091BC04A091BD04A7
:10094000B091BE048D839E83AF83B88782EE95E01D
:100950000E94BB1B882339F082EE95E00E94DC0BDD
:100960004B015C0106C0812C912C90ECA92E9FE7D5
:10097000B92E82EE95E00E94930B2B013C018FEC87
:1009800095E00E94BB1B882339F08FEC95E00E9414
:10099000DC0B6B017C0106C0C12CD12C80ECE82E55
:1009A0008FE7F82E8FEC95E00E94930B69877A878A
:1009B0008B879C8720E030E048EC52E4C501B4010D
:1009C0000E9461250E942E254B015C017093CC048E
:1009D0006093CB04C301B2010E942E256D87609302
:1009E000C80420E030E048EC52E4C701B6010E94A0
:1009F00061250E942E252B013C017093CA0460934F
:100A0000C90469857A858B859C850E942E25698716
:100A10006093C704B40180E090E00E9477246B01EA
:100A20007C01B20180E090E00E9477249B01AC0140
:100A3000C701B6010E94062420E030E040E05FE3F9
:100A40000E9461250E942E254B015C01AD856A2F15
:100A500070E080E090E00E9477246B017C01B98512
:100A60006B2F70E080E090E00E9477249B01AC0146
:100A7000C701B6010E94062420E030E040E05FE3B9
:100A80000E9461250E942E252B013C01B40180E0CB
:100A900090E00E9477246B017C01609121027091AB
:100AA000220280E090E00E9477249B01AC01C70104
:100AB000B6010E9405246B017C016093BF04709312
:100AC000C0048093C1049093C20423E333E343E75B
:100AD0005FE36D817E818F8198850E946125A701EA
:100AE00096010E9406244B015C016093BB04709345
:100AF000BC048093BD049093BE0429813A814B814C
:100B00005C81C701B6010E94052420E030E040EC82
:100B100050E40E946125A70196010E9406246B0102
:100B20007C0120E030E040E85EE3C501B4010E94B2
:100B300061259B01AC01C701B6010E94062420E09B
:100B400030E040E05FE30E9461256B017C0120E022
:100B500030E0A9010E94292518166CF41092C604F1
:100B600020E030E048EC52E4C701B6010E94722454
:100B700087FF1BC00DC081E08093C60420E030E0F9
:100B800048EC52ECC701B6010E94292518166CF4F6
:100B900020E030E0A901C701B6010E9429251816FE
:100BA0004CF0C701B601905807C060E070E088ECD7
:100BB00092E402C0C701B6010E942E25F62E609372
:100BC000C4048091200290E09C0125503109421616
:100BD000530620F481E08093C50405C08415950573
:100BE00010F41092C5048091C604882311F061E0CE
:100BF00001C060E086E00E94611A2FEFF29EC00102
:100C000011248C39A3E69A075CF464E670E00E9434
:100C10009C28072E000C880B990B0E94792404C095
:100C200060E070E08FE793E40E942E25F62EE72E19
:100C3000C62ED72E61E083E00E94901AC114D10421
:100C400011F460E005C0BFEFCB16D10429F461E0D8
:100C500083E00E94611ABAC0E2E5F3E0E4918E2FCE
:100C600090E0FC013197E131F10508F0A9C0882737
:100C7000EE58FF4F8F4F0C94B02884B5806884BD28
:100C8000F7BCA4C084B5806284BDF8BC9FC08091CD
:100C900080008068809380008F2D9E2D9093890026
:100CA0008093880093C08091800080628093800050
:100CB0008F2D9E2D90938B0080938A0087C080910A
:100CC000B00080688093B000F092B3007FC0809144
:100CD000B00080628093B000F092B40077C0809141
:100CE00090008068809390008F2D9E2D90939900A6
:100CF000809398006BC080919000806280939000F8
:100D00008F2D9E2D90939B0080939A005FC08091C1
:100D100090008860809390008F2D9E2D90939D0071
:100D200080939C0053C08091A00080688093A000B5
:100D30008091A0008F7B8093A0008F2D9E2D90939B
:100D4000A9008093A80042C08091A0008062809397
:100D5000A0008F2D9E2D9093AB008093AA0036C0EB
:100D60008091A00088608093A0008F2D9E2D90938D
:100D7000AD008093AC002AC08091200180688093F0
:100D800020018F2D9E2D90932901809328011EC054
:100D9000809120018062809320018F2D9E2D909361
:100DA0002B0180932A0112C08091200188608093DA
:100DB00020018F2D9E2D90932D0180932C0106C034
:100DC00020E8C216D1040CF042CF3BCF8091C5047D
:100DD000882311F061E001C060E089E00E94611A9F
:100DE0006AEF70E080E090E00E94CC1A8091C3042A
:100DF000882311F061E001C060E085E00E94611A83
:100E00006AEF70E080E090E02D960FB6F894DEBFB8
:100E10000FBECDBFDF91CF91FF90EF90DF90CF90CD
:100E2000BF90AF909F908F907F906F905F904F900A
:100E30000C94CC1ACF92DF92EF92FF920F931F93F4
:100E4000CF93DF9300D01F921F92CDB7DEB740E55E
:100E500050E06DE874E08CEB96E00E947C18892BE2
:100E600009F47BC087EF92E00E94320D85EE92E09C
:100E70000E94320D83ED92E00E94320D0E94200DFF
:100E8000E0E0F0E001900020E9F7CF0101977C015C
:100E900000E010E0C12CD12C0E94CD0C18161906D0
:100EA0000CF057C0F601E756FB4F2081022E000CD4
:100EB000330B8217930711F0C12CD12CF601E756A2
:100EC000FB4F2081022E000C330B8217930739F45D
:100ED000EFEFCE1ADE0AF8E0CF16D104A0F4E11449
:100EE000F10419F400E010E0D7CFF8012081022EC0
:100EF000000C330B82179307A9F70F5F1F4F0E15D6
:100F00001F0550F226C065E070E0CE0101960E94F8
:100F1000010D0597F1F40E946E0C61E070E0CE01C6
:100F200001960E94010D63E070E0CE0101960E94DF
:100F3000010D0E946E0C0E946E0C7093BA046093B7
:100F4000B9040E946E0C7093B8046093B7040E94B9
:100F50006E0C81E08093B6040AC01092B604109221
:100F6000BA041092B9041092B8041092B70464E65F
:100F700070E080E090E00E94CC1A8CEB96E00E943A
:100F800074138CEB96E00E941B178091B90490912A
:100F9000BA048730910514F0079701C041969093E9
:100FA000BA048093B9048091B9049091BA04069769
:100FB0000D9720F481E08093B50402C01092B5042F
:100FC0008091B504882341F08091A005882321F009
:100FD00081E08093C30402C01092C3040F900F906D
:100FE0000F900F900F90DF91CF911F910F91FF9075
:100FF000EF90DF90CF900895EF92FF921F93CF93E1
:10100000DF9380E090E00E94A0238093210281E0A2
:1010100090E00E94A0238093220260E272E082E0CE
:1010200090E00E94520260EA75E083E090E00E9446
:1010300052029091A1058091B40498130E94901BD4
:1010400060E080E00E94261B8091B9049091BA0470
:101050000A9754F462EA74E08FEF96E00E94C21996
:1010600060E081E00E94261B8091B9049091BA044F
:101070000E945C1B60E082E00E94261B61ED72E032
:101080008FEF96E00E949F1960E083E00E94261B8C
:101090008091B7049091B8040A9754F462EA74E01E
:1010A0008FEF96E00E94C21960E084E00E94261B48
:1010B0008091B7049091B8040E945C1B61E080E0CD
:1010C0000E94261B6BEC72E08FEF96E00E949F1946
:1010D0008091C60460E0882331F086E00E94261BE0
:1010E00066EC72E005C086E00E94261B61EC72E0AF
:1010F0008FEF96E00E949F1960E08AE00E94261B15
:101100006DEB72E08FEF96E00E949F1960E08AE03D
:101110000E94261B8091C404843650F46BEB72E06D
:101120008FEF96E00E949F1960E08BE00E94261BE3
:101130008091C4048A3050F469EB72E08FEF96E03E
:101140000E949F1960E08CE00E94261B6091C404FD
:101150008FEF96E00E94551B8091C50461E08823C3
:1011600031F08EE00E94261B62EB72E005C08EE03B
:101170000E94261B6BEA72E08FEF96E00E949F1997
:101180008091B60460E0882391F082E10E94261BE2
:1011900060E08FEF96E00E945A1960E083E10E94C0
:1011A000261B61E08FEF96E00E945A1909C082E188
:1011B0000E94261B68EA72E08FEF96E00E949F195A
:1011C0008091B50460E0882331F08EE00E94261BF8
:1011D00064EA72E005C08EE00E94261B60EA72E0BD
:1011E0008FEF96E00E949F198091A1058150833076
:1011F00008F077C061E085E00E94261B67E972E095
:101200008FEF96E00E949F19209121029091220277
:10121000822F64E670E00E948828D62FC22F84E6D1
:10122000689FC019112462E080E00E94261B61E9DA
:1012300072E08FEF96E00E949F1962E085E00E94C5
:10124000261B6D2F8FEF96E00E94551B62E087E012
:101250000E94261B6FE872E08FEF96E00E949F19B4
:1012600062E088E00E94261B6C2F8FEF96E00E94C0
:10127000551B62E08AE00E94261B62E08FEF96E039
:101280000E945A1963E080E00E94261B69E872E020
:101290008FEF96E00E949F1963E085E00E94261B75
:1012A000609120028FEF96E00E94551B63E087E07B
:1012B0000E94261B67E872E08FEF96E00E949F195C
:1012C00063E08DE00E94261B8091A005882319F021
:1012D00064EA74E002C06CEA74E08FEF96E00E946A
:1012E000C2198091A1058130B9F0C0F1823029F195
:1012F000833009F0F5C062E08CE00E94261B68E7AD
:1013000072E08FEF96E00E949F1963E08AE00E94EE
:10131000261B65E772E0E0C062E08CE00E94261BBD
:1013200064E872E08FEF96E00E949F1963E08AE024
:101330000E94261B61E872E0CFC062E08CE00E9450
:10134000261B6EE772E08FEF96E00E949F1963E024
:101350008AE00E94261B6BE772E0BEC061E085E078
:101360000E94261B6CE672E08FEF96E00E949F19A8
:101370002091CB049091CC0484E6E82EF12C822FAE
:10138000B7010E948828D62F1CE9C22F169FC00DD6
:10139000112462E080E00E94261B68E672E08FEF75
:1013A00096E00E949F1962E083E00E94261B6D2F49
:1013B0008FEF96E00E94551B62E085E00E94261B9D
:1013C00066E672E08FEF96E00E949F1962E086E089
:1013D0000E94261B6C2F8FEF96E00E94551B62E047
:1013E00088E00E94261B62E08FEF96E00E945A1967
:1013F00063E080E00E94261B62E672E08FEF96E0D9
:101400000E949F1963E083E00E94261B6091C8043C
:101410008FEF96E00E94551B63E085E00E94261B3B
:1014200060E672E08FEF96E00E949F192091C90458
:101430009091CA04822FB7010E948828D62FC22F0C
:10144000169FC00D112462E08BE00E94261B6CE504
:1014500072E08FEF96E00E949F1962E08EE00E949A
:10146000261B6D2F8FEF96E00E94551B62E080E1F6
:101470000E94261B6AE572E08FEF96E00E949F199A
:1014800062E081E10E94261B6C2F8FEF96E00E94A4
:10149000551B62E083E10E94261B62E08FEF96E01D
:1014A0000E945A1963E08BE00E94261B66E572E0F9
:1014B0008FEF96E00E949F1963E08EE00E94261B4A
:1014C0006091C7048FEF96E00E94551B63E080E1B6
:1014D0000E94261B64E572E08FEF96E00E949F1940
:1014E0008091A1058093B404DF91CF911F91FF906B
:1014F000EF9008953FB7F8948091D2049091D3046F
:10150000A091D404B091D50426B5A89B05C02F3F67
:1015100019F00196A11DB11D3FBFBA2FA92F982F19
:101520008827820F911DA11DB11DBC01CD0142E094
:10153000660F771F881F991F4A95D1F708952FB717
:10154000F8946091CE047091CF048091D004909172
:10155000D1042FBF08951F920F920FB60F9211243E
:101560002F933F938F939F93AF93BF938091CE041C
:101570009091CF04A091D004B091D1043091CD04CA
:1015800023E0230F2D3720F40196A11DB11D05C0C6
:1015900026E8230F0296A11DB11D2093CD04809350
:1015A000CE049093CF04A093D004B093D104809143
:1015B000D2049091D304A091D404B091D5040196A3
:1015C000A11DB11D8093D2049093D304A093D404A1
:1015D000B093D504BF91AF919F918F913F912F917F
:1015E0000F900FBE0F901F9018951F920F920FB67D
:1015F0000F9211240BB60F922F933F934F935F934B
:101600006F937F938F939F93AF93BF93EF93FF93CA
:10161000E0E0F0E01995FF91EF91BF91AF919F91BC
:101620008F917F916F915F914F913F912F910F908B
:101630000BBE0F900FBE0F901F901895CF93C091C7
:10164000210280E090E00E94A023C81729F06C2FAF
:1016500080E090E00E94A823C091220281E090E007
:101660000E94A023C81729F06C2F81E090E00E940F
:10167000A82360E272E082E090E00E945C0260EAEF
:1016800075E083E090E0CF910C945C0285ED80934F
:10169000BC008091BC0084FDFCCF1092F904089539
:1016A000089581E090E03091F7042091F60432171C
:1016B00010F480E090E091958195910908950F9341
:1016C0001F930E949F0A6093C4067093C50680937F
:1016D000C6069093C7068CEB96E00E94251497FFF0
:1016E0001FC00E949F0A0091C4061091C506209158
:1016F000C6063091C706DC01CB01801B910BA20B03
:10170000B30B0091C0061091C1062091C206309122
:10171000C30680179107A207B307E8F28FEF9FEF88
:101720001F910F910895CF92DF92EF92FF92CF9386
:10173000DF93EC010E94BB1B882399F18E818B30D3
:1017400080F18D3098F08551823058F5688179812B
:1017500076276727762780E090E00E9477242DEC9B
:101760003CEC4CEC5DE30E9461251FC0698170E098
:1017700080E090E00E9479242DEC3CEC4CEC5DE3A1
:101780000E9461256B017C01688170E080E090E03F
:101790000E9479249B01AC01C701B6010E94062476
:1017A00004C060E070E080EC9FE7DF91CF91FF9094
:1017B000EF90DF90CF900895CF92DF92EF92FF925B
:1017C0001F93CF93DF93EC018E818C3009F442C0DC
:1017D00018F48B30C1F05CC08551823008F058C0DD
:1017E0001A81612F6F7770E0762F66278B81682BC7
:1017F00080E090E00E9477242DEC3CEC4CEC5DE323
:101800000E94612541C06A8170E080E090E00E9402
:1018100077246B017C01CB81C7FF0AC09B01AC011F
:1018200060E070E080E89FEB0E9405246B017C0182
:101830006C2F6F7070E080E090E00E9479242DECB6
:101840003CEC4CEC5DE30E946125A70196010E94EF
:10185000062422C01A81612F70E080E090E00E948F
:1018600077246B017C016B816F7070E080E090E009
:101870000E9479242DEC3CEC4CEC5DE30E94612548
:10188000A70196010E94062417FF06C0905804C0C5
:1018900060E070E080EC9FE7DF91CF911F91FF90B7
:1018A000EF90DF90CF900895FC018485843021F083
:1018B00063E070E00C94281D80E00895CF93C82F5A
:1018C000462F61E070E00E94041761E070E08C2F09
:1018D0000E94281D8111F9CFCF910895CF92DF92F8
:1018E000EF92FF92CF930E945F0BFC0197FD0BC01C
:1018F0008D32910561F0C0970A9748F08CEB96E025
:101900000E94B114F0CF60E070E0CB0140C0C12C68
:10191000D12C7601C0E0E130F10501F1ED32F105A5
:10192000E1F0CF01C0970A97C8F4AAE0B0E0A701A0
:1019300096010E9464236F01FF0FEE08FF08DC018F
:10194000CB018C0D9D1DAE1DBF1D6C017D0120E3E3
:10195000C21AD108E108F10801C0C1E08CEB96E0A1
:101960000E94B1140E945F0BFC01C0970A9798F285
:10197000E130F10581F2CC2341F066277727CB01D6
:101980006C197D098E099F0902C0C701B601CF916C
:10199000FF90EF90DF90CF9008950F931F930E94D8
:1019A0009F0A6093C4067093C5068093C606909301
:1019B000C7068CEB96E00E94B11497FF1FC00E94EF
:1019C0009F0A0091C4061091C5062091C606309169
:1019D000C706DC01CB01801B910BA20BB30B00915E
:1019E000C0061091C1062091C2063091C30680172F
:1019F0009107A207B307E8F28FEF9FEF1F910F91B6
:101A00000895EF92FF920F931F93CF93DF938B0173
:101A10007C01C0E0D0E0C017D10751F00E94CD0C8E
:101A200097FD05C0F70181937F012196F4CF8E01C8
:101A3000C801DF91CF911F910F91FF90EF90089512
:101A4000CF93DF936DE08CEB96E00E945A19EC0186
:101A50006AE08CEB96E00E945A198C0F9D1FDF9173
:101A6000CF910895CF93DF93BC018CEB96E00E9459
:101A70009F19EC010E94200D8C0F9D1FDF91CF91CB
:101A800008950F931F93CF93DF93C82FD62F8A010A
:101A90000E940E174D2F60E070E08C2F0E940417FB
:101AA0000115110551F400917205109173050F5F36
:101AB0001F4F1093730500937205412F64E070E08F
:101AC0008C2F0E940417402F65E070E08C2F0E943D
:101AD000041761E070E08C2F0E945E0C81E0DF91C2
:101AE000CF911F910F9108959F92AF92BF92CF9285
:101AF000DF92EF92FF920F931F93CF93DF93982E75
:101B00008B015A01690164E270E00E94281DE82EF1
:101B1000F12C65E270E0892D0E94281DFE2CEE2438
:101B2000E82AE801CE0DDF1D9E013770E92CF12C6B
:101B3000C701880F991FAC01415E5A4F7A01FA0123
:101B400080819181820F931FA9014C0D5D1D413051
:101B5000584090F000E018E0021B130BA801B501FB
:101B60000E94BA16A601401B510BB501600F711FF0
:101B7000F7018081918102C0A601B5010E94BA16C9
:101B8000CC0DDD1D4D2F64E270E0892D0E940417FD
:101B90004C2F65E270E0892DDF91CF911F910F915D
:101BA000FF90EF90DF90CF90BF90AF909F900C94FC
:101BB0000417FF920F931F93CF93DF93F82E00E04B
:101BC00010E08F2D0E946C16EC01892B21F08F2DD7
:101BD0000E946C168C01C017D10799F7CE01DF91D6
:101BE000CF911F910F91FF9008958F929F92AF9286
:101BF000BF92CF92DF92EF92FF920F931F93CF93FA
:101C0000DF93D82E4B015A01C22E68E270E00E9489
:101C1000281DC82FD0E069E270E08D2D0E94281D9C
:101C2000DC2FCC278E01082B98013770ED2CF12C7E
:101C3000C701880F991FAC01495D5A4F7A01FA011B
:101C400080819181820F931FA501420F531F413064
:101C5000584090F0C0E0D8E0C21BD30BAE01B401F5
:101C60000E948A16A5014C1B5D0BB4016C0F7D1FF1
:101C7000F7018081918102C0A501B4010E948A16FA
:101C8000C1101BC0E501C00FD11F4D2F68E270E0ED
:101C90008D2D0E9404174C2F69E270E08D2DDF918D
:101CA000CF911F910F91FF90EF90DF90CF90BF9059
:101CB000AF909F908F900C940417DF91CF911F915C
:101CC0000F91FF90EF90DF90CF90BF90AF909F90DB
:101CD0008F900895FF920F931F93CF93DF93F82E69
:101CE00000E010E08F2D0E945416EC01892B21F0AA
:101CF0008F2D0E9454168C01C017D10799F7CE0181
:101D0000DF91CF911F910F91FF9008954F925F92B5
:101D10006F927F928F929F92AF92BF92CF92DF92FB
:101D2000EF92FF920F931F93CF93DF93CDB7DEB760
:101D300063970FB6F894DEBF0FBECDBF7C015B0189
:101D40003A01FB01DB018D918111FDCF20E030E0F4
:101D500080E090E05AE041914423F9F0843091050D
:101D60004CF54E3269F42F3F310509F01CF5D301D3
:101D7000A80FB91F12962C93019620E030E0EBCF0C
:101D8000529FB001539F700D1124242F440F330B29
:101D900020533109260F371FDECF2F3F310509F0C1
:101DA0004CF48430910534F4F301E80FF91F2283D9
:101DB00081E021C0F7014281538164817581809166
:101DC000B0059091B105A091B205B091B305481747
:101DD00059076A077B0709F427C10E949F0A8701F8
:101DE000085F1F4F6F7077277C5FC8010E94461DF8
:101DF000813019F080E090E0F8C18BE792E09A839F
:101E00008983F70182819381A481B5818B839C832F
:101E1000AD83BE8345E350E0BE016F5F7F4FC801D5
:101E20000E94DD1C892B19F4C12CD12CF8C00E9412
:101E30009F0AF7017783668342E050E0B7016A5F4B
:101E40007F4FC8010E94371581E090E09A83898313
:101E500042E050E0BE016F5F7F4FC8010E9437151E
:101E600080E091E09A83898342E050E0BE016F5F99
:101E70007F4FC8010E9437151A82198242E050E054
:101E8000BE016F5F7F4FC8010E94371542E050E0EE
:101E9000BE016F5F7F4FC8010E94371542E050E0DE
:101EA000BE016F5F7F4FC8010E9437154501F501E4
:101EB0008081882301F164015601F60181912F018F
:101EC000882321F08E3211F06201F6CFC818D908AC
:101ED0001C141D0474F4CD8641E050E0BE01635F24
:101EE0007F4FC8010E943715A601B401C8010E94A6
:101EF00037154201DCCF1D8641E050E0BE01635F33
:101F00007F4FC8010E943715C12CDD24D394DA829B
:101F1000C98242E050E0BE016F5F7F4FC8010E945E
:101F20003715DA82C98242E050E0BE016F5F7F4F11
:101F3000C8010E943715C8010E945318892B09F463
:101F400073CFE3E0AE2EB12C230122E0420E511CF0
:101F50000E949F0A3B014C01C8010E946915181696
:101F60001906A4F00E949F0ADC01CB01861997098B
:101F7000A809B90989389341A105B105D0F462E3F4
:101F800070E080E090E00E94CC1AE6CFF701428139
:101F9000538164817581818D928DA38DB48D481795
:101FA00059076A077B0749F4858D968DC59729F4F3
:101FB00009C0CC24CA94DC2C29C09EEFC92EDD2494
:101FC000DA9424C0F70181A192A10C970CF408C106
:101FD0004CE050E0BE016F5F7F4FC8010E94CB1400
:101FE0008B819C819827892798279A8B898BF70169
:101FF0004681578129813A8142175307C1F0C801B0
:102000000E94A1137CEFC72EDD24DA9481E0A81A88
:10201000B10829F0FFEFCF16DF0609F499CFC80108
:102020000E941A1DC601E1C08EEF9FEFDEC097FF30
:10203000E6CF8F709270892B41F0C8010E94A113E6
:102040006BEFC62EDD24DA94E1CF6F80788476249E
:10205000672476246114710419F0C12CD12C25C099
:10206000C8010E94A1135AEFC52EDD24DA94CECF09
:1020700041E050E0BE01635F7F4FC8010E94CB1476
:102080008D8581111BC08D858111F2CFC8010E9401
:10209000EA14C8010E94EA14C8010E94EA14C801A7
:1020A0000E94EA14FFEFCF1ADF0A8D819E819827E4
:1020B00089279827C816D906D8F20AC08D859FEFC0
:1020C000980F9D878823F9F2C8010E94EA14F6CF81
:1020D000812C912C41E050E0BE016D5E7F4FC80124
:1020E0000E94CB148B89982F907C61F4882389F00F
:1020F0008B899FEF980F9B8B882341F0C8010E942A
:10210000EA14F6CFC8010E94EA141B8A8B89811158
:10211000E1CF42E050E0BE01615F7F4FC8010E9405
:10212000CB1442E050E0BE01635F7F4FC8010E94C4
:10213000CB14C8010E94EA14C8010E94EA14C80125
:102140000E94EA14C8010E94EA1442E050E0BE0175
:102150006F5E7F4FC8010E94CB148F8598898115CF
:10216000914049F4CD84DE84DC24CD24DC2481E05C
:10217000C816D10419F0C12CD12C14C089899A89B0
:102180008115944041F0C8010E94A11347EFC42E6D
:10219000DD24DA943BCF44E050E0B201C8010E9454
:1021A000CB1434CF89899A89982789279827C8160C
:1021B000D90638F4C8010E94EA14FFEFCF1ADF0AEB
:1021C000F1CF2FEF821A920A6814790409F082CFB6
:1021D000C8010E94A11336EFC32EDD24DA9416CF76
:1021E0008DEFC82EDD24DA9411CF63960FB6F894E4
:1021F000DEBF0FBECDBFDF91CF911F910F91FF903A
:10220000EF90DF90CF90BF90AF909F908F907F9096
:102210006F905F904F900895CF93DF9320919F062A
:102220003091A0062A30310564F4EDE1F6E0C0E01B
:10223000D0E021913191232B39F02196CA30D1057C
:10224000C1F78FEF9FEF3AC041155105D1F3DC0183
:10225000CB01FE01EE0FFF1FEE0FFF1FEF5CF94FEA
:1022600080839183A283B383FE01EE0FFF1FE35EA1
:10227000F94F51834083FE01EE0FFF1FE75AF94FDC
:1022800011821082FE01EF57F94F81E080830E9496
:102290009F0AFE01EE0FFF1FEE0FFF1FEB50FA4FDC
:1022A000608371838283938380919F069091A006BF
:1022B00001969093A00680939F06CE01DF91CF9167
:1022C0000895CF93DF93EC0162E08D810E94901A14
:1022D0000E949F0ADC01CB01805D9740A109B109F2
:1022E00089879A87AB87BC8787E38A8BDF91CF91F9
:1022F0000895CF92DF92EF92FF920F931F93CF93A7
:10230000DF936C017B018A01E9016CE271E080E0FE
:1023100090E00E94CC1A61E085E30E94611A61E0BE
:1023200085E30E94901A8CB580618CBD8CB5806469
:102330008CBD61E084E30E94901A61E083E30E9417
:10234000901A249A60E880E090E00E94E91665E522
:102350008BE190E00E94E91665E58AE190E00E9439
:10236000E916EFE1F5E080E090E49183808380E07E
:1023700090E69187808780E098E49383828380E071
:1023800098E69387828780E090E59583848380E058
:1023900090E79587848780E098E59783868380E03F
:1023A00098E79787868746E050E060E072E089E032
:1023B00090E00E94BA16B6016E5F7F4F44E050E095
:1023C0008FE090E00E94BA16B8016E5F7F4F44E044
:1023D00050E081E090E00E94BA16BE016E5F7F4F30
:1023E00044E050E085E090E00E94BA16F701828157
:1023F0009381A481B5818093B6059093B705A0938E
:10240000B805B093B905DF91CF911F910F91FF905F
:10241000EF90DF90CF9008951F920F920FB60F921A
:1024200011240BB60F922F933F934F935F936F93AB
:102430007F938F939F93AF93BF93EF93FF9380917D
:10244000B900887F803609F49CC068F5883209F4A9
:102450005BC090F4803109F454C038F4882309F447
:10246000EFC0883009F44DC0EFC0883109F44CC08A
:10247000803209F45DC0E8C0803409F468C048F4D3
:10248000803309F455C0883309F0DEC08093F80426
:10249000D1C0803509F44FC0883509F45DC0883457
:1024A00009F0D2C0CFC0883909F4C0C0A8F4883779
:1024B00009F467C038F4883609F463C0803709F43A
:1024C00060C0C2C0883809F4B1C0803909F45FC067
:1024D000803809F0B9C05BC0803B09F481C038F492
:1024E000803A09F466C0883A09F47AC0ADC0803CED
:1024F00009F4A0C0883C09F49DC0883B09F483C05E
:10250000A3C080911E0510C090911D0580911C05EF
:10251000981770F5E0911D0581E08E0F80931D05E1
:10252000F0E0E450FB4F80818093BB0085EC7FC0DE
:102530008093F80487C0E0911D0581E08E0F8093A1
:102540001D058091BB00F0E0E450FB4F808390912B
:102550001D0580911C0567C0E0911D0581E08E0F6F
:1025600080931D058091BB00F0E0E450FB4F808319
:102570008091FB04811166C081E08093FA0484EAB3
:102580005AC083E08093F90410927105CFCF8091F7
:102590007105803208F04AC0E091710581E08E0F2C
:1025A000809371058091BB00F0E0EF5AFA4F808371
:1025B000BDCF80917105803230F4E0917105F0E07B
:1025C000EF5AFA4F10820E94460B6091710570E03D
:1025D00081E595E0E0E0F0E01995109271052AC0E0
:1025E00084E08093F9041092500510924F05E0E0CA
:1025F000F0E0199580914F05811105C081E080932D
:102600004F0510922F05E091500581E08E0F8093C9
:102610005005F0E0E15DFA4F80818093BB0090911E
:10262000500580914F05981708F480CF85E8809376
:10263000BC000AC085EC8093BC001092F90404C071
:102640001092F8040E94460BFF91EF91BF91AF9159
:102650009F918F917F916F915F914F913F912F91BA
:102660000F900BBE0F900FBE0F901F901895613208
:1026700098F42091F904243089F460934F05282FB1
:10268000AFE2B5E0FC018E2F821B861718F4819112
:102690008D93F9CF80E0089581E0089582E0089558
:1026A0009091F7048091F604981750F4E92FF0E028
:1026B000EA52FB4F208130E09F5F9093F70402C005
:1026C0002FEF3FEFC90108958091F60490E020912B
:1026D000F704821B9109089521E0FC018485843070
:1026E00009F420E0822F0895CF93DF93EC01E88175
:1026F000F9810480F581E02DCE011995892B41F0F7
:10270000E881F9810680F781E02DCE011995EFCFA0
:10271000DF91CF910895CF93DF931F92CDB7DEB7AE
:102720006983DC01ED91FC910280F381E02D41E0B1
:1027300050E0BE016F5F7F4F19950F90DF91CF91F1
:102740000895CF93DF93EC01898D9A8D892B41F009
:10275000E881F9810680F781E02DCE011995F4CF4B
:10276000DF91CF910895CF93DF931F92CDB7DEB75E
:102770006983DC01ED91FC910280F381E02D41E061
:1027800050E0BE016F5F7F4F19950F90DF91CF91A1
:102790000895CF92DF92EF92FF920F931F93CF9302
:1027A000DF937C01CB018A0120919F05222389F0D0
:1027B000EB016B01C40ED51ECC15DD0569F06991E6
:1027C000D701ED91FC910190F081E02DC7011995A1
:1027D000F3CF642F0E943713C801DF91CF911F916F
:1027E0000F91FF90EF90DF90CF900895CF93DF93FC
:1027F0001F92CDB7DEB7698320919F052223D1F0C8
:1028000020917D05203240F021E030E0FC0133834F
:10281000228380E090E015C080917C05E82FF0E0F5
:10282000E158FA4F998190838F5F80937C05809364
:102830007D0505C061E0CE0101960E94371381E05D
:1028400090E00F90DF91CF9108950F931F93CF9356
:10285000DF931F92CDB7DEB78C01DC01ED91FC91C7
:102860000480F581E02D1995892B69F021E041E084
:1028700050E0BE016F5F7F4FF80184850E94F50D27
:10288000898190E002C08FEF9FEF0F90DF91CF9191
:102890001F910F910895CF93DF931F92CDB7DEB7AD
:1028A000FC01218D328D232B61F021E041E050E0CD
:1028B000BE016F5F7F4F84850E94F50D898190E096
:1028C00002C08FEF9FEF0F90DF91CF910895FC0131
:1028D0008485843011F00C946A0E80E090E00895B5
:1028E000CF92DF92EF92FF921F93CF93DF93182F37
:1028F0006B017A010E946A0EEC01009799F463E083
:1029000070E0812F0E94281D8431F1F08823E1F0CE
:10291000C1E0D0E08C3111F4C0E0D0E0D195C19598
:10292000D10912C0E816F9060CF4E7011C161D06C1
:102930005CF420E0AE01B601812F0E94F50D60E449
:1029400070E0812F0E945E0CCE01DF91CF911F912C
:10295000FF90EF90DF90CF900895FC0184850C9458
:102960007014CF93DF931F92CDB7DEB741E050E0F4
:10297000BE016F5F7F4FFC0184850E9470141816A2
:1029800019061CF4898190E002C08FEF9FEF0F9031
:10299000DF91CF910895CF93DF93FC01218D328D8C
:1029A0002115310519F48FEF9FEF11C0EC0142178B
:1029B000530708F0A9018C850E9470141816190697
:1029C00094F7298D3A8D281B390B3A8F298FDF9187
:1029D000CF9108950F931F93CF93DF931F92CDB79D
:1029E000DEB7FC01218D328D232B61F08C0141E09B
:1029F00050E0BE016F5F7F4F84850E9470141816EF
:102A000019061CF08FEF9FEF08C0F801818D928DA1
:102A10000197928F818F898190E00F90DF91CF9104
:102A20001F910F910895CF93DF93FC0124852430EB
:102A3000D1F0EC010E94540C843181F0882371F0B4
:102A4000883161F08C3161F4E881F9810480F5818D
:102A5000E02DCE01199521E0892B19F420E001C069
:102A600021E0822F01C080E0DF91CF910895AF92E5
:102A7000BF92CF92DF92FF920F931F93CF93DF937A
:102A80008C015B01EA01FC01C788D08CF4848F2D96
:102A90000E94D90D8C179D0720F48F2D0E94D90D0F
:102AA000EC019E01A501B6018F2D0E94740DF80165
:102AB0008789908D8C0F9D1F908F878BCE01DF9122
:102AC000CF911F910F91FF90DF90CF90BF90AF906B
:102AD00008950F931F93CF93DF93CDB7DEB7289759
:102AE0000FB6F894DEBF0FBECDBF8C01DC01ED91B7
:102AF000FC910284F385E02D1995F80184850E94EC
:102B00006A0E892B51F148E050E0BE016F5F7F4FA4
:102B1000D8011C968C910E94701418161906FCF4AA
:102B2000D801519684E0FE01319601900D928A956C
:102B3000E1F78D8190E0982F88272E81820F911DDB
:102B4000F801968B858B8F8190E0982F88272885B8
:102B5000820F911D928F818F02C080E090E02896B5
:102B60000FB6F894DEBF0FBECDBFDF91CF911F919E
:102B70000F910895CF93FC01C48121E020939F051C
:102B8000C0937E0510927C0510927D058385682B8D
:102B900082EA95E00E94F61390917D05913208F04B
:102BA00041C08091F9048111FCCF82E08093F90447
:102BB00081E08093FB048FEF8093F80410921D0551
:102BC00090931C05AFE7B5E0ECEFF4E080E09817D8
:102BD00021F02D9121938F5FFACF10921E058091E5
:102BE0001E05CC0FC82BC0931E058091FA048130BE
:102BF00041F41092FA0480911E058093BB0085EC8D
:102C000001C085EE8093BC008091F9048230E1F32D
:102C10008091F8048F3F31F08091F804803211F0F8
:102C20008091F80410927C0510927D0510929F050A
:102C3000CF9108950F931F93CF938C01C62F0E94BD
:102C4000BA156C2F6460C8010E94BA156C2F6B7F97
:102C5000C8010E94BA1582EC90E00197F1F7CF917C
:102C60001F910F9108950F931F93CF93DF938C01C2
:102C7000C62FD42F607F642B0E941A1680E1C89F54
:102C8000B00111246D2BC801DF91CF911F910F91DD
:102C90000C941A1641E00E94331681E090E00895EA
:102CA0002C9A08952C9808951F93CF93DF93182F93
:102CB00066E270E00E94281DC82FD0E067E270E055
:102CC000812F0E94281DDC2FCC279E01282BC901B3
:102CD000DF91CF911F9108951F93CF93DF93182F0A
:102CE00060E270E00E94281DC82FD0E061E270E031
:102CF000812F0E94281DDC2FCC279E01282BC90183
:102D0000DF91CF911F9108958EBD0DB407FEFDCFC9
:102D10008EB50895CF92DF92EF92FF920F931F939B
:102D2000CF93DF93EC017A018B016C01C40ED51EA9
:102D3000CC15DD05A9F00E9452168FE00E94841682
:102D40008D2F0E9484168C2F0E948416219680E07D
:102D50000E948416F80181938F010E945016E8CFDB
:102D6000C701DF91CF911F910F91FF90EF90DF90FE
:102D7000CF900895CF92DF92EF92FF920F931F931F
:102D8000CF93DF93EC017A018B016C01C40ED51E49
:102D9000CC15DD05A1F00E94521680EF0E9484162A
:102DA0008D2F0E9484168C2F0E9484162196F80184
:102DB00081918F010E9484160E945016E9CFC701AD
:102DC000DF91CF911F910F91FF90EF90DF90CF9007
:102DD00008951F93CF93DF93D82F192FC62F0E94EA
:102DE000521680EF0E948416812F0E9484168D2F28
:102DF0000E9484168C2F0E9484160E94501681E037
:102E0000DF91CF911F9108959B0190E00496982F38
:102E10008827642F820F931F0C94E916CF93C82F35
:102E200060E170E00E945E0C4FEF62E070E08C2F7A
:102E3000CF910C940417CF92DF92EF92FF92CF9331
:102E4000DF93EC018C85843059F168E070E00E94DA
:102E50005E0C0E949F0A6B017C01CE010E94540C03
:102E60008823A1F00E949F0ADC01CB018C199D09E7
:102E7000AE09BF09883E9340A105B10538F461E071
:102E800070E080E090E00E94CC1AE7CFCE010E9473
:102E9000540C882319F08C850E940E1784E08C87CF
:102EA000DF91CF91FF90EF90DF90CF9008958F92B8
:102EB0009F92AF92BF92CF92DF92EF92FF920F93C9
:102EC0001F93CF936C015B017A01FC01C485C43070
:102ED00041F481E090E0F6019383828380E090E00A
:102EE00041C08A014130584010F000E018E08C2FBA
:102EF0000E94D90D4C0163E070E08C2F0E94281DC8
:102F0000873111F08C3121F48016910680F302C0D4
:102F100000E010E09801A50160E070E08C2F0E94B5
:102F2000740D60E270E08C2F0E945E0C62E070E035
:102F30008C2F0E94281D84FD0BC063E070E08C2F55
:102F40000E94281D8111F2CF8C2F0E940E17C1CF35
:102F500040E162E070E08C2F0E940417012B09F41D
:102F6000B8CFC701CF911F910F91FF90EF90DF90E5
:102F7000CF90BF90AF909F908F900895DF92EF9287
:102F8000FF920F931F93CF93DF93FC01248524308E
:102F900009F07CC07A01EB018C01D12C63E070E078
:102FA0008D2D0E94281D811103C0F801D48607C011
:102FB0008B7F8831D1F3D394F4E0DF12EFCFF801A7
:102FC0008485843009F462C02091060230910702A2
:102FD0002F5F3F4F11F420E034E03093070220933D
:102FE0000602409106025091070261E00E94410DE5
:102FF0008A818F3F51F48B818F3F91F48C818F3F79
:1030000079F48D818F3F61F43EC0811109C08B81BD
:10301000811106C08C81811103C08D81882399F1B3
:10302000E114F10481F1F801D484BE016E5F7F4F99
:103030008D2D90E0982F882744E050E0845F9B4FCF
:103040000E94BA164F2D60E170E08D2D0E9404178A
:103050004E2D61E170E08D2D0E94041764E070E058
:103060008D2D0E945E0CC8010E94540C873189F09E
:1030700061E070E080E090E00E94CC1AC8010E94FC
:10308000540C8111F0CF84E0F801848780E090E057
:1030900002C081E090E0DF91CF911F910F91FF90EE
:1030A000EF90DF900895CF93FC01C48560E270E05B
:1030B0008C2F0E945E0C62E070E08C2F0E94281D15
:1030C00084FD10C062E070E08C2F0E94281D83FFF9
:1030D000F2CF48E162E070E08C2F0E94041780E09C
:1030E00090E008C040E162E070E08C2F0E9404177D
:1030F00081E090E0CF910895CF92DF92EF92FF921E
:103100000F931F93CF93DF93CDB7DEB7AF970FB673
:10311000F894DEBF0FBECDBF8C016B017A01CE01EA
:1031200001960E942D1ACE0109960E94131ECE010F
:103130008A960E942D1A8091B6059091B705A091AC
:10314000B805B091B9058EA39FA3A8A7B9A78B8393
:103150009C83AD83BE8318861F82AE01465D5F4FA0
:10316000B601CE0101960E94860E81309105C1F410
:10317000D801ED91FC910484F585E02D8BE792E078
:103180009DA38CA38CA59DA5AEA5BFA58EA39FA333
:10319000A8A7B9A7A701BE016C5D7F4FC80119950B
:1031A000AF960FB6F894DEBF0FBECDBFDF91CF91C3
:1031B0001F910F91FF90EF90DF90CF900895CF92E5
:1031C000DF92EF92FF920F931F93CF93DF936C01E7
:1031D000EB017B01E40EF51E00E010E0CE15DF05EB
:1031E00061F06991D601ED91FC910190F081E02DA3
:1031F000C6011995080F191FF1CFC801DF91CF91B2
:103200001F910F91FF90EF90DF90CF900895089558
:1032100090E0FC013197E131F10508F04AC08827C0
:10322000ED57FF4F8F4F0C94B028809180008F771F
:1032300003C0809180008F7D80938000089584B5C5
:103240008F7702C084B58F7D84BD08958091B000D2
:103250008F7703C08091B0008F7D8093B000089578
:10326000809190008F7707C0809190008F7D03C080
:1032700080919000877F8093900008958091A000B6
:103280008F7707C08091A0008F7D03C08091A00040
:10329000877F8093A0000895809120018F7707C0D9
:1032A000809120018F7D03C080912001877F8093D2
:1032B00020010895DC01ED91FC910190F081E02D59
:1032C00019948F929F92AF92BF92CF92DF92EF921A
:1032D000FF920F931F93CF93DF937C018B014C01DF
:1032E00082E0880E911C5701E5E0AE0EB11CC0E0F3
:1032F000D0E0F40161914F01C8010E94551B6C019F
:103300006EE2C8010E945A198C0D9D1DC80FD91F6D
:103310008A149B0471F7F7016581C8010E94551B4F
:103320008C0F9D1FDF91CF911F910F91FF90EF9018
:10333000DF90CF90BF90AF909F908F900895EF92C5
:10334000FF920F931F93CF93DF937C01FB0100E06B
:1033500010E06491EF012196662361F0D701ED91B1
:10336000FC910190F081E02DC7011995080F191FFC
:10337000FE01EFCFC801DF91CF911F910F91FF9018
:10338000EF9008956115710579F0FB01019000201F
:10339000E9F73197AF01461B570BDC01ED91FC912A
:1033A0000280F381E02D199480E090E008958F92DF
:1033B0009F92AF92BF92CF92DF92EF92FF920F93C4
:1033C0001F93CF93DF93CDB7DEB7A1970FB6F894D5
:1033D000DEBF0FBECDBF6C01142FE52FCB01022F36
:1033E00019A2223008F40AE07E0121E2E20EF11C6B
:1033F000802E912CA12CB12C612F7E2FA501940140
:103400000E946F23029F1019112481E0E81AF1082D
:103410001A3014F4105D01C0195CF7011083122FEB
:10342000E32FCA01232B242B252B31F7B701C6012B
:103430000E94C219A1960FB6F894DEBF0FBECDBF91
:10344000DF91CF911F910F91FF90EF90DF90CF9080
:10345000BF90AF909F908F900895FC018BE792E012
:103460008193919384E0DF011D928A95E9F7089595
:10347000CF93DF93282F30E0F901E15BFC4F84917B
:10348000F901E552FC4FD491F901EB56FC4FC49180
:10349000CC2391F081110E940819EC2FF0E0EE0F7F
:1034A000FF1FEF5DFB4FA591B491EC91ED2381E0FF
:1034B00090E021F480E002C080E090E0DF91CF91C5
:1034C00008951F93CF93DF93282F30E0F901E15B3C
:1034D000FC4F8491F901E552FC4FD491F901EB5670
:1034E000FC4FC491CC23C1F0162F81110E94081902
:1034F000EC2FF0E0EE0FFF1FE05EFC4FA591B491C2
:103500009FB7F894111104C08C91D095D82302C0B4
:10351000EC91DE2BDC939FBFDF91CF911F9108953B
:10352000CF93DF9390E0FC01E552FC4F2491FC0126
:10353000EB56FC4F8491882361F190E0880F991F2E
:10354000FC01EA5FFC4FC591D491FC01E05EFC4FA9
:10355000A591B491611109C09FB7F8948881209515
:1035600082238883EC912E230BC0623061F49FB7D5
:10357000F8948881322F309583238883EC912E2B09
:103580002C939FBF06C08FB7F894E8812E2B288319
:103590008FBFDF91CF910895CF92DF92EF92FF928C
:1035A000CF93DF936B017C010E947A0AEB01C11477
:1035B000D104E104F10479F00E947A0A6C1B7D0BBE
:1035C000683E7340A0F381E0C81AD108E108F10811
:1035D000C851DC4FECCFDF91CF91FF90EF90DF909F
:1035E000CF900895CF93DF93EC01862F68831982E3
:1035F0001A8242E350E060E070E04E875F87688B9C
:10360000798B60E00E94901A8981882321F061E023
:1036100088810E94611A88810E94381A8B839A815E
:10362000992321F091E0811190E09B830E949F0AF1
:103630006E837F83888799872B812C831D826A877D
:103640007B878C879D87DF91CF910895CF93DF9300
:10365000CDB7DEB728970FB6F894DEBF0FBECDBF4B
:1036600098E0E3E2F2E0DE01119601900D929A9566
:10367000E1F790910807961710F46FEF690FFE01BC
:103680003196E60FF11DE60FF11D6081680F60684D
:1036900040E08FEF96E028960FB6F894DEBF0FBE9D
:1036A000CDBFDF91CF910C943316462F50E060E0F0
:1036B00070E02AE00C94D719CF92DF92EF92FF923C
:1036C000CF93DF936C01990FEE08FF08F7FE1BC044
:1036D0006DE28FEF96E00E945A19EC0144275527BE
:1036E000BA014C195D096E097F092AE08FEF96E057
:1036F0000E94D7198C0F9D1FDF91CF91FF90EF9003
:10370000DF90CF9008952AE0B701A6018FEF96E0F1
:10371000DF91CF91FF90EF90DF90CF900C94D7196D
:1037200040E061E08FEF96E00E9433168AE39FE16C
:103730000197F1F708950F931F93CF93DF938B01B8
:10374000877098E0899FB0011124606440E08FEF9A
:1037500096E00E943316E801085F1F4F69918FEFD2
:1037600096E00E944A16C017D107C1F7DF91CF91AA
:103770001F910F9108958F929F92AF92BF92CF9217
:10378000DF92EF92FF920F931F93CF93DF93CDB70A
:10379000DEB7C054D1400FB6F894DEBF0FBECDBF28
:1037A0008C010E949F0AF801C184D284E384F484CE
:1037B0009B01AC012C193D094E095F0969017A0191
:1037C00030EDC31637E0D306E104F10410F481892B
:1037D000C1C0F8016187728783879487148213823E
:1037E00012821182108262E085810E94901A61E04B
:1037F00070E080E090E00E94CC1A61E0F8018581E1
:103800000E94901A60E0F80185810E94611AF80117
:1038100086818551823028F48AE291E10197F1F79F
:1038200006C064E170E080E090E00E94CC1A62E0A3
:10383000F80185810E94901AF801828990E0019731
:1038400039F0880F991F880F991F02970197F1F798
:10385000F89460E0C8010E94741D6F3F7F4F8F4F46
:103860009F4F21F4F801118A789445C061E0C801A6
:103870000E94741D6F3F7F4F8F4F9F4F99F39E01A2
:103880002F5F3F4F79015E013FEBA31A3EEFB30A72
:10389000670160E0C8010E94741DF60160837183B6
:1038A0008283938361E0C8010E94741DF6016483E2
:1038B000758386839783F8E0CF0ED11CCA14DB048E
:1038C00041F7789420E030E0F70180809180A28079
:1038D000B3804481558166817781FFEF8F169F0603
:1038E000AF06BF0631F04F3F8FEF580768077807E4
:1038F00021F4F801118A80E02DC0F90183E0F595EB
:10390000E7958A95E1F7E00FF11F8081880F841613
:103910009506A606B70608F4816080832F5F3F4FA7
:10392000F8E0EF0EF11C2832310571F6F801248120
:1039300030E04081818190E0840F911D4281840FAD
:10394000911D4381840F911D99272817390789F606
:1039500081E0818BC05CDE4F0FB6F894DEBF0FBEF6
:10396000CDBFDF91CF911F910F91FF90EF90DF902E
:10397000CF90BF90AF909F908F900895FC01818D64
:10398000928D0895FC018589968908952BE732E090
:10399000FC0131832083FB01418952896389748949
:1039A000FC0142835383648375830895DC01ED91A8
:1039B000FC91008CF18DE02D19941F93CF93DF9330
:1039C000FB01DC0158961C921E925797228121110F
:1039D00009C02381211106C02481211103C0258142
:1039E000222311F141155105F9F0EA01BF01FC0153
:1039F00014856E5F7F4F812F90E0982F882744E0D9
:103A000050E0845F9B4F0E94BA164D2F60E170E03A
:103A1000812F0E9404174C2F61E170E0812F0E94DA
:103A2000041781E090E002C080E090E0DF91CF9148
:103A30001F910895CF93DF93FC018485843029F092
:103A4000EF010E940E1784E08C87DF91CF910895DB
:103A5000CF93DF9390E00496982F8827EC01C60F50
:103A6000D71F0E9452168FE00E9484168D2F0E944D
:103A700084168C2F0E94841680E00E948416C82F22
:103A80000E9450168C2FDF91CF910895EF92FF92F4
:103A90001F93CF93DF93FC012485243011F080E045
:103AA0001DC07B01EC0110E063E070E0812F0E94FB
:103AB000281D811102C01C8705C08831E1F31F5FFA
:103AC000143091F78C85843051F3FE86ED861A8E82
:103AD000198EA70162E00E94410D81E0DF91CF9134
:103AE0001F91FF90EF900895CF92DF92EF92FF9297
:103AF0001F93CF93DF93EC011F81662311F0912F69
:103B000001C090E0288530E0220F331F2F5D3B4F2E
:103B1000A0E0B0E0F90145915491FA018081812340
:103B2000AD0160E070E098130FC01196CD84DE8483
:103B3000EF84F8884C155D056E057F0558F33FEF5F
:103B40002FEF8FEF9FEF03C03A2F252FCB01632F6D
:103B5000722FDF91CF911F91FF90EF90DF90CF9068
:103B60000895FC018381882321F081E095819111E2
:103B700001C080E00895CF92DF92EF92FF920F9301
:103B80001F93CF93DF93EC010E949F0A6B017C018E
:103B9000609348077093490780934A0790934B07B7
:103BA00088810E94381A809347079A81992329F0C7
:103BB00091E0811190E0909347078A859B85AC85C1
:103BC000BD8597018601081B190B2A0B3B0B4E85FF
:103BD0005F85688979899B81041715072607370750
:103BE00038F4CE82DF82E886F9861D82892F12C0E2
:103BF0009C83809147078B83CE82DF82E886F9869B
:103C0000981739F0CA86DB86EC86FD8691E09D83A5
:103C100001C01D82DF91CF911F910F91FF90EF9016
:103C2000DF90CF900895FC011382128288EE93E01A
:103C3000A0E0B0E084839583A683B78387E892E011
:103C40009183808384E08487CF010F960C942D1A92
:103C5000CF92DF92EF92FF920F931F93CF93DF9358
:103C6000CDB7DEB7AF970FB6F894DEBF0FBECDBFAE
:103C70008C016B017A01CE0101960E942D1ACE01B2
:103C800009960E94131ECE018A960E942D1A8091D9
:103C9000B6059091B705A091B805B091B9058EA36E
:103CA0009FA3A8A7B9A78B839C83AD83BE831886E7
:103CB0001F82AE01465D5F4FB601CE0101960E94A4
:103CC000860E81309105C1F4D801ED91FC910088F8
:103CD000F189E02D8BE792E09DA38CA38CA59DA597
:103CE000AEA5BFA58EA39FA3A8A7B9A7A701BE0194
:103CF0006C5D7F4FC8011995AF960FB6F894DEBF83
:103D00000FBECDBFDF91CF911F910F91FF90EF902C
:103D1000DF90CF900895CF93DF93CDB7DEB76E9746
:103D20000FB6F894DEBF0FBECDBF789484B5826025
:103D300084BD84B5816084BD85B5826085BD85B54F
:103D4000816085BD80916E00816080936E001092CD
:103D50008100809181008260809381008091810048
:103D600081608093810080918000816080938000D9
:103D70008091B10084608093B1008091B000816037
:103D80008093B00080919100826080939100809137
:103D90009100816080939100809190008160809378
:103DA00090008091A10082608093A1008091A10089
:103DB00081608093A1008091A00081608093A00029
:103DC0008091210182608093210180912101816095
:103DD0008093210180912001816080932001809156
:103DE0007A00846080937A0080917A008260809368
:103DF0007A0080917A00816080937A0080917A00C5
:103E0000806880937A001092C1001092F70410929B
:103E1000F60410927C0510927D051092F90481E061
:103E20008093FB041092FA0461E084E10E94611A1D
:103E300061E085E10E94611A8091B9008E7F8093D4
:103E4000B9008091B9008D7F8093B90088E4809398
:103E5000B80085E48093BC001092040780910807A5
:103E6000823018F098E09093040790910907992305
:103E700039F0813029F4809104078460809304072D
:103E800062E370E080E090E00E94CC1A60910A0743
:103E90008FEF96E00E94BA1568EE73E080E090E044
:103EA0000E94CC1A60E38FEF96E00E941A160AE493
:103EB00016E4C8010197F1F760E38FEF96E00E94E6
:103EC0001A16C8010197F1F760E38FEF96E00E94A0
:103ED0001A1682E592E00197F1F760E28FEF96E023
:103EE0000E941A1660910407606240E08FEF96E02E
:103EF0000E94331684E08093050740E06CE08FEF6A
:103F000096E00E9433160E94901B82E08093060781
:103F100040E066E08FEF96E00E94331640E062E0FA
:103F20008FEF96E00E9433168AE39FE10197F1F745
:103F300068E172E080E00E949B1B60E172E081E03A
:103F40000E949B1B68E072E082E00E949B1B18E0CD
:103F500010930A0760E08FEF96E00E94BA156AEFAF
:103F600070E080E090E00E94CC1A10920A0760E0B6
:103F70008FEF96E00E94BA156AEF70E080E090E063
:103F80000E94CC1A10930A0760E08FEF96E00E941F
:103F9000BA156AEF70E080E090E00E94CC1A60E011
:103FA00080E00E94261B69E473E08FEF96E00E9498
:103FB0009F1961E080E00E94261B6AE373E08FEFA7
:103FC00096E00E949F1960E08BE20E94901A60E0E8
:103FD00089E20E94901A60E087E20E94901A61E0F4
:103FE00085E00E94901A61E089E00E94901A61E0E9
:103FF00087E00E94901A61E083E00E94901A61E0DD
:1040000086E00E94901A60E085E00E94611A60E0FC
:1040100089E00E94611A60E086E00E94611A61E016
:1040200083E00E94901A60E083E00E94611A6AEFC8
:1040300070E080E090E00E94CC1A8BE792E09A83D7
:10404000898340911307509114076091150770916F
:1040500016074B835C836D837E8398878F834091A3
:10406000190750911A0760911B0770911C07498727
:104070005A876B877C879E878D8740911F07509159
:10408000200760912107709122074F87588B698B19
:104090007A8B9C8B8B8B8091250790912607A09122
:1040A0002707B09128078D8B9E8BAF8BB88F9E0111
:1040B0002F5F3F4FAE01495F5F4FBE01635F7F4F90
:1040C000CE0143960E94791188EB9BE0A0E0B0E01E
:1040D0008093C0069093C106A093C206B093C30616
:1040E00064EF71E080E090E00E94CC1A69E97FE122
:1040F00081EA96E00E94461D82EE95E00E946111E1
:104100008FEC95E00E9461118CEB95E00E946111AB
:1041100043E752E060EE73E984E090E00E940C1106
:1041200048E754E060E375E780E090E00E940C11FE
:104130004CEF57E060ED77E080E090E00E940C11DA
:104140004AE157E060E375E780E090E00E940C11DF
:10415000F894A8958091600088618093600089E65A
:10416000809360007894EE24E394F12C8DEE96E039
:104170000E94BB1D8BED96E00E94BB1D89EC96E072
:104180000E94BB1D8DEE96E00E94B11D882371F048
:104190008091A1058F5F843018F48093A10502C03F
:1041A0001092A1050E94901B0E94FC078091A1051E
:1041B000813021F58BED96E00E94B11D882369F0D6
:1041C00080912102909122020A969093220280937C
:1041D00021020E941E0B0E94FC0789EC96E00E94BF
:1041E000B11D882309F440C08091210290912202E0
:1041F0000A97909322028093210232C08230D9F430
:104200008BED96E00E94B11D882349F08091200239
:104210008F5F809320020E941E0B0E94FC0789EC96
:1042200096E00E94B11D8823F9F080912002815010
:104230008093200215C08330B9F48BED96E00E9484
:10424000B11D811106C089EC96E00E94B11D882342
:1042500089F08091A005882309F4CAC01092A005B6
:104260000E941E0B0E94FC078091A105843010F073
:104270001092A1050E949F0A4B015C01E9E5F6E05E
:1042800095EF292E95E0392E21E8C22E26E0D22E78
:104290000DE616E096013E8E2D8E13AA12AACF01CE
:1042A000CC97DC018D919C91892B09F440C0AD8D98
:1042B000BE8D4D905D906D907C901397DC964D91E6
:1042C0005D916D917C91DF97D501C40184199509A9
:1042D000A609B70984179507A607B70740F1440D4B
:1042E000551D661D771DAD8DBE8D4D935D936D93F0
:1042F0007C931397D9018C918823C9F04081518117
:104300004115510519F4F3AAE2AA11C084899589CF
:104310008417950764F4F3AAE2AA0196958B848B1F
:104320008417950724F082E090E093AB82AB32963D
:10433000AD8DBE8D1496BE8FAD8F2F5F3F4FB6E013
:10434000ED36FB0709F0A9CF85EFA82E85E0B82E42
:10435000F801868D978D8130910519F0029741F013
:104360002DC0D5019896ED91FC919997199526C08D
:10437000D5019896ED91FC919997199580919F069A
:104380009091A0060097D1F0F50120A531A5232B2F
:10439000A9F011A610A6D6011C92F801178E168E50
:1043A000D101DC961D921D921D921C92DF97118205
:1043B000108201979093A00680939F06B2E0AB0E07
:1043C000B11CEFEFCE1ADE0AF4E02F0E311C0E5FA7
:1043D0001F4F89E0A81686E0B80609F0B9CFA89566
:1043E000A0E0B0E0AB2B09F4C1CE0E940000BECE2D
:1043F00081E08093A00534CFCF92DF92EF92FF92BD
:104400000F931F93CF93DF93CBE7D2E0D0932A078C
:10441000C093290710922B0710922C0710922D079A
:1044200010922E071092A5051092A40588EEC82EB2
:1044300083E0D82EE12CF12CC092A605D092A705DE
:10444000E092A805F092A9058FE292E09093A3056F
:104450008093A205D093AF05C093AE051092B0052E
:104460001092B1051092B2051092B305D0933007A7
:10447000C0932F0710923107109232071092330722
:104480001092340784EB95E00E942D1AD0933607E2
:10449000C0933507109237071092380710923907EA
:1044A00010923A07D0933C07C0933B0710923D0708
:1044B00010923E0710923F0710924007D093420798
:1044C000C09341071092430710924407109245078A
:1044D00010924607D0932407C093230720EC209323
:1044E000250798EA9093260781E0809327073FED00
:1044F00030932807D0931E07C0931D0720931F07F2
:1045000090932007809321073EEF30932207D093AA
:104510001807C09317072093190790931A078093E1
:104520001B0730931C07D0931207C09311078FEF1E
:104530008093130780931407809315071092160732
:10454000D0930C07C0930B0783E280930D0795EC83
:1045500090930E0780930F0780E6809310071092C8
:104560000207109201078BE692E090930007809378
:10457000FF0687E28093030784E180930707C4E086
:10458000C09308071092090788E080930A076BE23E
:104590008DEE96E00E94F21A69E28BED96E00E94A1
:1045A000F21A67E289EC96E00E94F21A1092BF06B6
:1045B0001092BE06C092C006D092C106E092C2061A
:1045C000F092C3068FE492E09093BD068093BC0600
:1045D000C093C80681EA96E00E94131E0E949F0ABB
:1045E000C1E8D6E0EDE1F6E005EF15E041E356E085
:1045F000199211921192D8016D937D938D939D9391
:104600008D019F01225B3F4FD9011D921C924E17D5
:104610005F0771F71092A00610929F068DE28093BB
:10462000E70526E12093E805E8E0F4E0E491E09373
:10463000E905E2ECF3E0E491E093EA0580E89EE32B
:10464000A0E0B0E08093EF059093F005A093F10512
:10465000B093F2053EE23093D4052093D505E9E00E
:10466000F4E0E491E093D605E3ECF3E0E491E09329
:10467000D7058093DC059093DD05A093DE05B0930C
:10468000DF053CE23093C1052093C205E7E0F4E08A
:10469000E491E093C305E1ECF3E0E491E093C40519
:1046A0008093C9059093CA05A093CB05B093CC0520
:1046B000DF91CF911F910F91FF90EF90DF90CF90FE
:1046C0000895F8940C94B8280E949123A59F900D0A
:1046D000B49F900DA49F800D911D11240895A1E217
:1046E0001A2EAA1BBB1BFD010DC0AA1FBB1FEE1F6C
:1046F000FF1FA217B307E407F50720F0A21BB30BB7
:10470000E40BF50B661F771F881F991F1A9469F732
:1047100060957095809590959B01AC01BD01CF018E
:104720000895A29FB001B39FC001A39F700D811D8A
:104730001124911DB29F700D811D1124911D0895AA
:10474000F999FECF92BD81BDF89A992780B5089559
:10475000262FF999FECF1FBA92BD81BD20BD0FB69D
:10476000F894FA9AF99A0FBE01960895FB01DC01BC
:104770000D900020E9F7119701900D920020E1F7CC
:104780000895FB01DC0101900D920020E1F70895EE
:104790000F931F93CF93DF93CDB7DEB72E970FB64E
:1047A000F894DEBF0FBECDBF0E891F89888D998D0D
:1047B00026E02C831A83098397FF02C080E090E8EB
:1047C00001979E838D83AE01445E5F4F6A8D7B8D22
:1047D000CE0101960E94CE254D815E8157FD0AC013
:1047E0002F813885421753070CF49A01F801E20F24
:1047F000F31F10822E960FB6F894DEBF0FBECDBF0A
:10480000DF91CF911F910F9108955058BB27AA2790
:104810000E941D240C94EF240E94E12438F00E9491
:10482000E82420F039F49F3F19F426F40C94DE2498
:104830000EF4E095E7FB0C94D824E92F0E940025A4
:1048400058F3BA17620773078407950720F079F4C5
:10485000A6F50C9422250EF4E0950B2EBA2FA02D70
:104860000B01B90190010C01CA01A0011124FF271D
:10487000591B99F0593F50F4503E68F11A16F04018
:10488000A22F232F342F4427585FF3CF4695379517
:104890002795A795F0405395C9F77EF41F16BA0BDC
:1048A000620B730B840BBAF09150A1F0FF0FBB1F8A
:1048B000661F771F881FC2F70EC0BA0F621F731FD3
:1048C000841F48F4879577956795B795F7959E3F30
:1048D00008F0B0CF9395880F08F09927EE0F9795C1
:1048E000879508950E94B42408F481E00895E8941F
:1048F00009C097FB3EF490958095709561957F4F28
:104900008F4F9F4F9923A9F0F92F96E9BB279395D5
:10491000F695879577956795B795F111F8CFFAF4E5
:10492000BB0F11F460FF1BC06F5F7F4F8F4F9F4F16
:1049300016C0882311F096E911C0772321F09EE874
:10494000872F762F05C0662371F096E8862F70E0DA
:1049500060E02AF09A95660F771F881FDAF7880FB4
:104960009695879597F90895990F0008550FAA0B0A
:10497000E0E8FEEF16161706E807F907C0F0121672
:104980001306E407F50798F0621B730B840B950B75
:1049900039F40A2661F0232B242B252B21F40895CA
:1049A0000A2609F4A140A6958FEF811D811D089567
:1049B00097F99F6780E870E060E008959FEF80ECD2
:1049C000089500240A941616170618060906089575
:1049D00000240A9412161306140605060895092EDB
:1049E0000394000C11F4882352F0BB0F40F4BF2B4A
:1049F00011F460FF04C06F5F7F4F8F4F9F4F08958A
:104A000057FD9058440F551F59F05F3F71F047957F
:104A1000880F97FB991F61F09F3F79F08795089564
:104A2000121613061406551FF2CF4695F1DF08C083
:104A3000161617061806991FF1CF869571056105A0
:104A400008940895E894BB2766277727CB0197F948
:104A500008950E94B42408F48FEF08950E94082559
:104A600058F19E5760F19851A0F0E9F0983020F588
:104A7000092E9927660F771F881F991F0A94D1F76F
:104A800012C0062E672F782F8827985F11F4000C2C
:104A900007C0993FB4F38695779567959395D9F7B5
:104AA000611D711D811D3EF49095809570956195F5
:104AB0007F4F8F4F9F4F089568940C9423250C943B
:104AC00022250E9474250C94EF240E94E12438F0E2
:104AD0000E94E82420F0952311F00C94D8240C9423
:104AE000DE2411240C9423250E94002570F3959F49
:104AF000C1F3950F50E0551F629FF001729FBB27D5
:104B0000F00DB11D639FAA27F00DB11DAA1F649F70
:104B10006627B00DA11D661F829F2227B00DA11D23
:104B2000621F739FB00DA11D621F839FA00D611DA9
:104B3000221F749F3327A00D611D231F849F600DCA
:104B4000211D822F762F6A2F11249F5750409AF0F3
:104B5000F1F088234AF0EE0FFF1FBB1F661F771F7F
:104B6000881F91505040A9F79E3F510580F00C944A
:104B7000D8240C9423255F3FE4F3983ED4F3869524
:104B800077956795B795F795E7959F5FC1F7FE2BEA
:104B9000880F911D9695879597F908952F923F92CA
:104BA0004F925F926F927F928F929F92AF92BF923D
:104BB000CF92DF92EF92FF920F931F93CF93DF93E9
:104BC000CDB7DEB72B970FB6F894DEBF0FBECDBFC3
:104BD0006C017B018A01FC0117821682838181FFAF
:104BE000CCC1CE0101963C01F6019381F70193FD02
:104BF000859193FF81917F01882309F4BAC18532A1
:104C000039F493FD859193FF81917F01853229F4D9
:104C1000B60190E00E94EE27E7CF912C212C312C99
:104C2000FFE1F315D8F08B3279F038F4803279F067
:104C30008332A1F4232D20611DC08D3261F08033B9
:104C400069F4232D216016C0832D8260382EE32D58
:104C5000E4603E2E2AC0F32DF8601DC037FC2DC045
:104C600020ED280F2A3040F08E32B9F436FC81C195
:104C7000232D2064322E19C036FE06C08AE0989E8D
:104C8000200D1124922E11C0EAE02E9E200D112439
:104C9000222EF32DF0623F2E08C08C3621F4832D96
:104CA0008068382E02C0883641F4F70193FD859163
:104CB00093FF81917F018111B3CF982F9F7D9554F0
:104CC000933028F40C5F1F4F9FE399830DC0833608
:104CD00031F0833771F0833509F059C021C0F801F4
:104CE000808189830E5F1F4F88248394912C530108
:104CF00013C02801F2E04F0E511CF801A080B180D2
:104D000036FE03C0692D70E002C06FEF7FEFC50172
:104D10000E94E3274C018201F32DFF773F2E16C03E
:104D2000280122E0420E511CF801A080B18036FE1D
:104D300003C0692D70E002C06FEF7FEFC5010E94D4
:104D4000D8274C01F32DF0683F2E820133FC1BC0A5
:104D5000822D90E088169906B0F4B60180E290E0CA
:104D60000E94EE272A94F4CFF50137FC859137FE97
:104D700081915F01B60190E00E94EE2721102A94F4
:104D800021E0821A91088114910471F7E8C08436F9
:104D900011F0893641F5F80137FE07C06081718155
:104DA000828193810C5F1F4F08C060817181072E43
:104DB000000C880B990B0E5F1F4FF32DFF763F2ED3
:104DC00097FF09C090958095709561957F4F8F4FA3
:104DD0009F4FF0683F2E2AE030E0A3010E942A286E
:104DE000882E861845C0853731F4232D2F7EB22EAC
:104DF0002AE030E025C0932D997FB92E8F36C1F07F
:104E000018F4883579F0B5C0803719F0883721F06B
:104E1000B0C0E92FE061BE2EB4FE0DC0FB2DF460E2
:104E2000BF2E09C034FE0AC0292F2660B22E06C04C
:104E300028E030E005C020E130E002C020E132E0AF
:104E4000F801B7FE07C060817181828193810C5F98
:104E50001F4F06C06081718180E090E00E5F1F4FA0
:104E6000A3010E942A28882E8618FB2DFF773F2E4B
:104E700036FE0DC0232D2E7FA22E891458F434FE49
:104E80000BC032FC09C0832D8E7EA82E05C0B82C25
:104E9000A32C03C0B82C01C0B92CA4FE0FC0FE0186
:104EA000E80DF11D8081803321F49A2D997EA92E81
:104EB00009C0A2FE06C0B394B39404C08A2D8678BC
:104EC00009F0B394A3FC11C0A0FE06C0B21488F48C
:104ED000280C922C9B180EC0B21460F4B60180E22C
:104EE00090E00E94EE27B394F7CFB21418F42B1879
:104EF00002C0982C212CA4FE10C0B60180E390E0E3
:104F00000E94EE27A2FE17C0A1FC03C088E790E034
:104F100002C088E590E0B6010CC08A2D867859F071
:104F2000A1FE02C08BE201C080E2A7FC8DE2B601C7
:104F300090E00E94EE27891438F4B60180E390E0F7
:104F40000E94EE279A94F7CF8A94F301E80DF11DA1
:104F50008081B60190E00E94EE278110F5CF2220DB
:104F600009F442CEB60180E290E00E94EE272A9436
:104F7000F6CFF6018681978102C08FEF9FEF2B96C7
:104F80000FB6F894DEBF0FBECDBFDF91CF911F915A
:104F90000F91FF90EF90DF90CF90BF90AF909F90D8
:104FA0008F907F906F905F904F903F902F900895DB
:104FB000FC010590615070400110D8F780959095E4
:104FC0008E0F9F1F0895FC016150704001900110E9
:104FD000D8F7809590958E0F9F1F08950F931F937C
:104FE000CF93DF93FB01238121FD03C08FEF9FEF60
:104FF0002CC022FF16C0468157812481358142177B
:10500000530744F4A081B1819D012F5F3F4F31834D
:1050100020838C93268137812F5F3F4F37832683F0
:1050200014C08B01EC01FB010084F185E02D199582
:10503000892BE1F6D80116968D919C9117970196D0
:1050400017969C938E931697CE01DF91CF911F9167
:105050000F910895FA01AA27283051F1203181F1EA
:10506000E8946F936E7F6E5F7F4F8F4F9F4FAF4F70
:10507000B1E03ED0B4E03CD0670F781F891F9A1F83
:10508000A11D680F791F8A1F911DA11D6A0F711D37
:10509000811D911DA11D20D009F468943F912AE043
:1050A000269F11243019305D3193DEF6CF0108952B
:1050B000462F4770405D4193B3E00FD0C9F7F6CF5C
:1050C000462F4F70405D4A3318F0495D31FD405224
:1050D000419302D0A9F7EACFB4E0A69597958795BA
:1050E00077956795BA95C9F7009761057105089599
:1050F0009B01AC010A2E0694579547953795279545
:10510000BA95C9F7620F731F841F951FA01D0895DC
:10511000AA1BBB1B51E107C0AA1FBB1FA617B707DD
:1051200010F0A61BB70B881F991F5A95A9F78095F9
:105130009095BC01CD01089597FB072E16F40094BD
:1051400007D077FD09D00E94882807FC05D03EF4DF
:10515000909581959F4F0895709561957F4F089523
:10516000EE0FFF1F881F8BBF0790F691E02D19945B
:04517000F894FFCFE1
:1051740000ADBEEFFEEE00040814080304040300AF
:1051840000000E1A0E0000001C171D011D171C0044
:105194004BF609000040001400540000000000F623
:1051A40013C91364135013510B500B000000000774
:1051B40019DF180719071907190719000000008BD0
:1051C4001357176714B11425147413BE177C18AD44
:1051D400141B1713156C13000000004A16DF180087
:1051E4000000000719DF180000000061190000002A
:1051F40000071900000000B3133715BE1CEA144B56
:1052040014A113461D1A1DDD1C281E53186915CB45
:1052140014D61CC61CC21C74656D70312C6F776E5D
:1052240065723D726F6C6F2C67726F75703D686F3D
:105234006D652C6465766963653D686368322076C4
:10524400616C75653D0025303264002E000A0074DF
:10525400656D70322C6F776E65723D726F6C6F2C5A
:1052640067726F75703D686F6D652C6465766963F0
:10527400653D686368322076616C75653D006875CC
:105284006D312C6F776E65723D726F6C6F2C677227
:105294006F75703D686F6D652C6465766963653DF7
:1052A400686368322076616C75653D0068756D329F
:1052B4002C6F776E65723D726F6C6F2C67726F75B1
:1052C400703D686F6D652C6465766963653D6863E0
:1052D40068322076616C75653D0068656174636F42
:1052E4006F6C2C6F776E65723D726F6C6F2C67728A
:1052F4006F75703D686F6D652C6465766963653D97
:10530400686368322076616C75653D002564006DC4
:105314006973742C6F776E65723D726F6C6F2C6756
:10532400726F75703D686F6D652C64657669636531
:105334003D686368322076616C75653D0068706F06
:105344007765722C6F776E65723D726F6C6F2C6728
:10535400726F75703D686F6D652C64657669636501
:105364003D686368322076616C75653D0025303395
:1053740064006C696768742C6F776E65723D726F38
:105384006C6F2C67726F75703D686F6D652C64650A
:10539400766963653D686368322076616C75653D46
:1053A40000736574542C6F776E65723D726F6C6F09
:1053B4002C67726F75703D686F6D652C64657669D6
:1053C40063653D686368322076616C75653D007382
:1053D4006574482C6F776E65723D726F6C6F2C67C5
:1053E400726F75703D686F6D652C64657669636571
:1053F4003D686368322076616C75653D00726D634B
:105404006C61726B652E6361000D0A446174653AC8
:105414002000300020204672756974006E6F467259
:045424007569740032
:00000001FF
